:020000040800F2
:10000000900B002009020008850E0008B10C0008C2
:10001000810E00086D070008A7120008000000000C
:100020000000000000000000000000003110000887
:100030007107000800000000190F00081D110008DA
:1000400023020008230200082302000823020008FC
:1000500023020008230200082302000823020008EC
:1000600023020008230200082302000823020008DC
:1000700023020008230200082302000823020008CC
:1000800023020008230200082302000823020008BC
:1000900023020008230200082302000823020008AC
:1000A000230200088111000823020008230200082F
:1000B000230200082302000823020008230200088C
:1000C000230200082302000823020008230200087C
:1000D0002302000823020008851100088711000888
:1000E000F108000823020008230200082302000888
:1000F000230200082302000823020008230200084C
:10010000230200082302000823020008230200083B
:1001100083110008230200082302000823020008BC
:10012000230200082302000823020008230200081B
:1001300000F002F800F048F80AA090E8000C8244B1
:100140008344AAF10107DA4501D100F03DF8AFF28E
:10015000090EBAE80F0013F0010F18BFFB1A43F0A5
:10016000010318474816000068160000103A24BF23
:1001700078C878C1FAD8520724BF30C830C144BF0C
:1001800004680C607047000000230024002500264E
:10019000103A28BF78C1FBD8520728BF30C148BFEA
:1001A0000B607047782900F09180002070471FB5E0
:1001B00000F084FA04000020002101F0CDFA401C78
:1001C00060601FBD10B510BD00F053FA1146FFF777
:1001D000EEFF01F099FA00F083FA03B4FFF7F2FFA3
:1001E00003BC01F05FFA0000EFF30980704780F371
:1001F00009887047EFF30880704780F308887047DC
:1002000040BA7047C0BA704709488047094800475C
:10021000FEE7FEE7FEE7FEE7FEE7FEE7FEE7FEE7B6
:10022000FEE7FEE704480549054A064B7047000013
:10023000211100083101000890050020900B0020DA
:100240009007002090070020704700000FB4044979
:1002500010B503AA029800F019F910BC5DF814FB60
:10026000180000202DE9F0410E46044600202062CF
:100270002046E168884730B3252805D0D4E901211C
:100280009047206A401CF2E7E16820460027884733
:10029000050018D0A5F14100192802D820354FF4E7
:1002A00000673246294620462760FFF77BFF40B1B2
:1002B000012804D0F61D26F007060836D8E7361DBB
:1002C000D6E72846DAE7206ABDE8F08170B5044633
:1002D0000D4621461068AFF300802188090502D53C
:1002E0000F4A7A4402E00E4A7A440E32002104F1A9
:1002F000240305E000F00F060009965D5E54491CDA
:100300000028F7D120780023000704D5702D02D0F3
:1003100009B1022311322046BDE8704000F05CB8FC
:100320009E14000070B5064600F052F804680546B9
:1003300030460A22002100F0BBF82C6070BD032A71
:1003400040F2308010F0030C00F0158011F8013BF2
:10035000BCF1020F624498BF11F801CB00F8013BD9
:1003600038BF11F8013BA2F1040298BF00F801CB9D
:1003700038BF00F8013B11F0030300F0D180083AC8
:10038000C0F0088051F8043B083A51F804CBA0E8CB
:100390000810F5E7121D5CBF51F8043B40F8043B20
:1003A000AFF30080D20724BF11F8013B11F801CB55
:1003B00048BF11F8012B24BF00F8013B00F801CB26
:1003C00048BF00F8012B704770477047704770476F
:1003D00000487047300500202DE9F0470D4699464A
:1003E0009246044600F124080168880604D5E069B5
:1003F00021F01001216000E00120A84201DD471B2F
:1004000000E00027A1697A1902EB0900081AA0612F
:100410002078C00602D42046AFF30080002608E012
:10042000D4E901211AF806009047206A401C761C86
:1004300020624E45F4DB2078C0060AD52046AFF393
:10044000008006E0D4E9012130209047206A401C5A
:100450002062381EA7F10107F4DC07E0D4E901218E
:1004600018F805009047206A401C2062281EA5F15C
:100470000105F3DC2046AFF300802078000602D5AA
:100480000220BDE8F0870120FBE70000074B70B5B4
:100490000D467B4400F087F80446284600F0E5F856
:1004A00010B14FF0FF3070BD204670BD4F120000FC
:1004B0002DE9F04791460F4680460446002614F881
:1004C000015B2DB100F062F80068405DC007F6D115
:1004D0002B2D02D02D2D18D0641E4A4639462046B9
:1004E00000F074F827B13968A14201D1C7F8008043
:1004F0004FF0020471050BD54042002803DDFFF7E1
:1005000067FF0460A007BDE8F08746F48066E4E773
:100510000028F8DAFFF75CFF04606FF00040F2E7B4
:1005200010B5203AC0F00B80B1E81850203AA0E88E
:100530001850B1E81850A0E81850BFF4F5AF5FEAC2
:10054000027C24BFB1E81850A0E8185044BF18C975
:1005500018C0BDE810405FEA827C24BF51F8043B1C
:1005600040F8043B08BF7047D20728BF31F8023B70
:1005700048BF11F8012B28BF20F8023B48BF00F804
:10058000012B7047004870473005002010B500F07F
:1005900095F8001D10BD00BFC111000001694A1C83
:1005A00002610878704700B58FB0CDE901310021B4
:1005B000059105497944CDE9031011466846FFF7D6
:1005C00051FE0FB000BD0000E5FFFFFF2DE9F05F19
:1005D000824615468B4600270AF10104B946007889
:1005E000302801D09DB113E014F8010B01277828C1
:1005F00003D0582801D045B10AE00DB1102D07D124
:10060000002714F8010B102502E0082500E00A2558
:100610000026B0460EE005FB080005FB06F10127A9
:100620001FFA80F801EB1046B6F5803F00D3B946BB
:1006300014F8010B294600F045F80028EBDABBF16D
:10064000000F05D00FB1641E00E05446CBF8004007
:10065000B9F1000F06D0FFF7BBFE02210160C81EF2
:10066000BDE8F09F48EA0640FAE7007B00F0800012
:1006700070477546FFF786FFAE460500694653464C
:1006800020F00700854618B020B5FFF7CBFDBDE888
:1006900020404FF000064FF000074FF000084FF0E9
:1006A000000B21F00701AC46ACE8C009ACE8C0097A
:1006B000ACE8C009ACE8C0098D46704700487047F7
:1006C000500500203A2800D2303820F02002412A7C
:1006D00001D3A2F13700884201D34FF0FF307047B9
:1006E0000446AFF300802046FFF777FD4FF0013C52
:1006F00050F8042B51F8043B9A4221D1A2EB0C0391
:10070000934313EACC1317D150F8042B51F8043B50
:100710009A4215D1A2EB0C03934313EACC130BD1ED
:1007200050F8042B51F8043B9A4209D1A2EB0C0378
:10073000934313EACC13DBD04FF00000704700BFA7
:10074000D01A01BAB1FA81F101F0180122FA01F0D0
:10075000CB40C1F12001DBB2C0B2C01A2CFA01F3C8
:10076000D11A914311EAC311E6D1704700BFFEE7E9
:100770007047000000B585B00121480400F0CEFBB1
:100780000121212000F0DAFB0121082000F048FAC5
:100790002020ADF8100003208DF8120018208DF8ED
:1007A000130004A9124800F0B0F94020ADF8100081
:1007B00048208DF8130004A90D4800F0A6F94FF465
:1007C000E13000900020ADF80400ADF80600ADF86F
:1007D0000800ADF80C000C20ADF80A006946054889
:1007E00000F0ECFC0121034800F0CEFC05B000BD98
:1007F000001401400044004070B50025002600248C
:10080000184800F099FD0546002D27DD16A0FFF7DA
:100810001DFD601E00F010FB0646DEB918A0FFF7B4
:1008200015FD00BF05E04FF47A7000F03DFF601C3D
:10083000C4B20A2CF7DB00BF1B48006800F4E0607C
:100840001A490843001D18490860BFF3408F00BFD4
:1008500000BFFEE716A0FFF7F9FC02E01EA0FFF7BD
:10086000F5FC70BD30010020446F776E6C6F6164E1
:100870004669726D77617265206F6B0D0A0000002A
:100880004941505F57726974654D6F6465466C618C
:100890006728464C41475F4150505F4D4F444529C2
:1008A000206F6B0D0A0000000CED00E00000FA055F
:1008B0004941505F57726974654D6F6465466C615C
:1008C0006728464C41475F4150505F4D4F44452992
:1008D000206661696C0D0A00446F776E6C6F61640D
:1008E0004669726D77617265206661696C0D0A00F8
:1008F000704700000149C8607047000000200240B6
:1009000030B5A525042400F08FF800B100254FF480
:10091000302000F0E7F80446042C3AD11E481F4965
:1009200088601F4888600846006940F02000086120
:100930000846006940F0400008614FF4302000F0A4
:10094000D1F80446042C1BD11448006941F6DF712C
:100950000840124908610846006940F0100008612B
:1009600010480580E00200F0BDF80446052C10D0C8
:100970000A48006941F6EF7108400849086108E03B
:10098000052C06D00548006941F6EF71084003497F
:100990000861204630BD0000230167450020024069
:1009A000AB89EFCD00F8FF1F30B5044604254FF4A6
:1009B000302000F097F80546042D17D10C48006947
:1009C00040F002000A49086108464461006940F0AD
:1009D000400008614FF4302000F084F805460448D8
:1009E000006941F6FD71084001490861284630BDA3
:1009F0000020024004200B49C96801F0010109B13F
:100A000001200EE00749C96801F0040109B1022084
:100A100007E00449C96801F0100109B1032000E0B2
:100A2000042070470020024000200449C96901F0F9
:100A3000020109B1012000E00020704700200240BF
:100A40000148006A70470000002002400348006926
:100A500040F080000149086170470000002002401A
:100A600078B506460C46042500200090E80200F008
:100A700039F80546042D24D11348006940F00100DF
:100A8000114908613480E80200F02CF80546042D75
:100A900010D1B01C0090200C00990880E80200F0F2
:100AA00021F805460848006941F6FE7108400649EC
:100AB000086106E00448006941F6FE7108400249F9
:100AC0000861284678BD0000002002400248034922
:100AD0004860034848607047230167450020024092
:100AE000AB89EFCD00B502460423FFF783FF034631
:100AF00003E0FFF77FFF0346521E012B01D1002ABE
:100B0000F7D102B90523184600BD2DE9F041024690
:100B100000250026002000230024002791F803C0B0
:100B20000CF00F0591F803C00CF0100CBCF1000F95
:100B300003D091F802C04CEA050591F800C0BCF161
:100B4000000F31D0146800202BE04FF0010C0CFA9C
:100B500000F3B1F800C00CEA03069E4220D18300E6
:100B60004FF00F0C0CFA03F7BC4305FA03FC4CEAF8
:100B7000040491F803C0BCF1280F06D14FF0010C1A
:100B80000CFA00FCC2F814C00AE091F803C0BCF1F2
:100B9000480F05D14FF0010C0CFA00FCC2F810C050
:100BA000401C0828D1D31460B1F800C0BCF1FF0F7D
:100BB00034DD546800202EE000F1080C4FF00108ED
:100BC00008FA0CF3B1F800C00CEA03069E4221D1EA
:100BD00083004FF00F0C0CFA03F7BC4305FA03FC3B
:100BE0004CEA040491F803C0BCF1280F05D100F1D0
:100BF000080C08FA0CF8C2F8148091F803C0BCF194
:100C0000480F07D100F1080C4FF0010808FA0CF862
:100C1000C2F81080401C0828CED35460BDE8F08193
:100C2000F0B50A46002300240021002500F000460C
:100C3000B6F1004F02D11D4EF16901E01B4E716803
:100C4000C0F3034583B200F44016B6F5401F08D147
:100C500021F07061154E766826F07066134F7E6045
:100C600012E000F48016B6F5801F06D1032606FABE
:100C700005F4A14341F0706106E0460D360103FA28
:100C800006F6B14341F0706122B1460D360103FA18
:100C900006F6314300F00046B6F1004F02D1034E94
:100CA000F16101E0014E7160F0BD00000000014003
:100CB00000BFFEE770B50025002403250120A840F1
:100CC000401EC443FFF7BCFE2040A04201D0FFF706
:100CD00017FE70BD2DE9F0410446002500270426CB
:100CE000A846C4F30A0020B1012000EBD42087B24B
:100CF00001E0C4F3CF27FFF7E9FE3420FFF7FAFD48
:100D000000250CE00B4901EBC520FFF74DFE064620
:100D1000042E02D04FF0010805E0681C85B2BD42E8
:100D200001DA042EEED000BFFFF790FE4046BDE88A
:100D3000F08100000030000800B585B00121880373
:100D400000F0FCF80121052000F0F8F84FF40070E5
:100D5000ADF8100003208DF8120018208DF8130054
:100D600004A91348FFF7D1FE4FF48060ADF81000DE
:100D700048208DF8130004A90D48FFF7C6FE4FF474
:100D8000E13000900020ADF80400ADF80600ADF8A9
:100D90000800ADF80C000C20ADF80A0069460548C3
:100DA00000F00CFA0121034800F0EEF905B000BD97
:100DB000000801400038014010B508484068084963
:100DC0000860084600680749086004490868FFF79A
:100DD00014FA04480068804710BD00000030000885
:100DE000080000200400002001480068704700004F
:100DF000002800082DE9F04105460C461646FFF78D
:100E000065FE3420FFF776FD00270EE028462168B6
:100E1000FFF726FE28682168884203D04FF0FF3094
:100E2000BDE8F0812D1D241D3F1DB742EED3FFF715
:100E30000DFE0020F4E700002DE9F04104460027F4
:100E4000B84604250026FFF741FE3420FFF752FD87
:100E50000A48FFF7A9FD0546042D09D12146074898
:100E6000FFF7FEFD05480068A04202D0012600E021
:100E70000126FFF7EBFD3046BDE8F08100280008B1
:100E800000BFFEE77047000008B50121042000F014
:100E900055F80121042000F051F84FF40040ADF85E
:100EA000000010208DF8030003208DF80200694631
:100EB0001848FFF72AFE4FF40060ADF8000010203C
:100EC0008DF8030003208DF8020069461148FFF7F2
:100ED0001CFE10480C30006840F400400D490C31F5
:100EE00008604FF4FA7000F0DFFB0A480C3000682D
:100EF00020F4006007490C3108604FF4FA7000F0EC
:100F0000D3FB04480C30006840F4006001490C3108
:100F1000086008BD000801407047000029B1064A7A
:100F2000D2690243044BDA6104E0034AD269824386
:100F3000014BDA61704700000010024029B1064AF7
:100F400092690243044B9A6104E0034A9269824326
:100F5000014B9A61704700000010024030B500213B
:100F60000022002400232D4D6D6805F00C0121B1F5
:100F7000042905D0082923D105E0294D056022E088
:100F8000274D05601FE0254D6D6805F47012234D57
:100F90006D6805F48034022505EB92421CB9214DA1
:100FA000554305600BE01D4D6D6805F400351DB11E
:100FB0001C4D5543056002E0194D5543056002E0A4
:100FC000174D056000BF00BF144D6D6805F0F001BE
:100FD0000909154D6B5C0568DD4045600F4D6D6876
:100FE00005F4E061090A104D6B5C4568DD408560E1
:100FF0000A4D6D6805F46051C90A0B4D6B5C45687C
:10100000DD40C560054D6D6805F44041890B074D15
:101010006B5CC568B5FBF3F5056130BD001002409F
:1010200000127A0000093D001C0000202C00002066
:10103000704710B500F002F810BD00000CB500209C
:10104000019000903348006840F4803031490860D6
:1010500000BF3048006800F4003000900198401C48
:101060000190009818B90198B0F5A06FF1D1294806
:10107000006800F4003010B10120009001E0002071
:1010800000900098012843D12348006840F01000E8
:10109000214908600846006820F0030008600846FF
:1010A000006840F0020008601A484068194948602A
:1010B0000846406848600846406840F480604860E0
:1010C0000846406820F47C1048600846406840F4B8
:1010D000E81048600846006840F08070086000BF73
:1010E0000C48006800F000700028F9D009484068FA
:1010F00020F00300074948600846406840F00200BD
:10110000486000BF0348406800F00C000828F9D18F
:101110000CBD00000010024000200240704700009B
:1011200010B51348006840F00100114908600846F6
:101130004068104908400E494860084600680E495A
:1011400008400B4908600846006820F480200860C9
:101150000846406820F4FE0048604FF41F00886095
:10116000FFF767FF4FF000600449086010BD000002
:10117000001002400000FFF8FFFFF6FE08ED00E05F
:10118000704770477047704721B1828942F400521E
:10119000828104E082894DF6FF731A408281704794
:1011A00002460020B1F5007F00D100BF13880B403C
:1011B0000BB1012000E00020704700002DE9F0474E
:1011C00086B005460E460024A24600BFA146002771
:1011D000B08900B100BF2F462C8A4CF6FF70044046
:1011E000F08804432C82AC894EF6F3100440B0889A
:1011F00031890843718908430443AC81AC8A4FF6B6
:10120000FF400440B0890443AC8201A8FFF7A6FE6A
:101210001F48874202D1DDF810A001E0DDF80CA0E4
:10122000A88900F4004040B10AEBCA0000EB0A10A4
:1012300031684900B0FBF1F807E00AEBCA0000EBA7
:101240000A1031688900B0FBF1F86420B8FBF0F0B7
:1012500004012009642101FB1089A88900F40040E1
:1012600040B1322000EBC900B0FBF1F000F0070004
:10127000044308E0322000EB09106421B0FBF1F0D8
:1012800000F00F0004432C8106B0BDE8F087000099
:101290000038014001468888C0F308007047C1F358
:1012A00008028280704700BFFEE7000001464FF051
:1012B000E020006920F004004FF0E0221061C1F34B
:1012C000C700084A10701046007800EB4002C2EBDD
:1012D000C0104FF6FF7202EAC000034A10800020DF
:1012E00070470000120000201400002070B5024674
:1012F0000B46002000211CE0565C3402002514E05F
:1013000080EA040636B2002E05DA41F2210686EAAA
:101310004006B0B203E04FF6FF7606EA40004FF613
:10132000FF7606EA44046E1CB5B2082DE8DB4E1CBD
:10133000B1B29942E0DB70BD2DE9F04FADF22C4D1A
:101340000646002700200190834600250090804635
:1013500004908146029000BF002700200390B2460F
:1013600000BF4FF4801201A909A800F013F910B1D1
:10137000012872D1B1E04FF000090198B0F1FF3FB0
:1013800001D028BB07E0062000F07CF900200DF218
:101390002C4DBDE8F08FB8F1000F07D108F1010026
:1013A00000F0FF08152000F06DF910E0B8F1010F12
:1013B00008D1062000F066F9432000F063F901200F
:1013C000039004E0062000F05DF90120039082E024
:1013D0009DF82500F9B2884203D0152000F052F99B
:1013E00078E0002F4ED19DF82700002843D000253B
:1013F0000DF1270405E014F8012B28466D1C4E4919
:101400000A54207808B1FF2DF5D9002228466D1C1A
:1014100049490A540025641C05E014F8012B2846AC
:101420006D1C05A90A542078202801D0102DF4D372
:10143000002228466D1C05A90A5405A8FEF772FF74
:101440008346BBF5802F09DB182000F01BF918201C
:1014500000F018F94FF0FF3099E747E05846FFF7E2
:1014600039FC364836490860062000F00BF9432065
:1014700000F008F92BE0062000F004F901200390A9
:10148000049028E00DF127015046019AFEF757FF1E
:1014900000962B48DDE900120068FFF7ABFC68B14D
:1014A000182000F0EFF8182000F0ECF8244801684C
:1014B00024A0FEF7CBFE6FF0010068E7204800682B
:1014C000019908441E490860062000F0DBF87F1CE3
:1014D0000120029000BF00BF1EE0182000F0D2F8EB
:1014E000182000F0CFF86FF0020050E702980028B3
:1014F00003DD09F1010000F0FF09B9F10A0F07DD72
:10150000182000F0BFF8182000F0BCF800203EE7DB
:10151000432000F0B7F800BF00BF039800283FF455
:1015200020AF00BF00BF049800283FF415AF00BFF4
:1015300000BF58462BE700003000002000300008B4
:10154000000000204941505F557064617461507221
:101550006F6772616D28257829206661696C0D0AB4
:101560000000000070B504460D460AE0202108483E
:10157000FFF716FE28B10648FFF78CFE207000200A
:1015800070BD2800A5F10105F0D1401EF8E700006C
:10159000003801402DE9F84304460E4690460020ED
:1015A000306041466846FFF7DDFF18B14FF0FF306D
:1015B000BDE8F8839DF80000182813D006DC012848
:1015C00009D0022809D0042820D109E041281AD0E6
:1015D00061281BD118E080251BE04FF4806518E0DE
:1015E0000020E5E741466846FFF7BCFF40B99DF89B
:1015F0000000182804D14FF0FF3030600020D7E7FA
:101600004FF0FF30D4E700BF0120D1E74FF0FF30AB
:10161000CEE700BF9DF800002070012709E0E01927
:101620004146FFF79FFF10B14FF0FF30C0E7781C35
:1016300087B2681D8742F2DB6178A07880F0FF00F6
:10164000814202D04FF0FF30B2E72946E01CFFF79D
:101650004DFE0A490880281D215CE81C205C01EB36
:10166000002007490880054800880988884202D080
:101670004FF0FF309CE73560002099E70E00002016
:101680001000002010B5044621460548FFF707FE6C
:1016900000BF80210248FFF783FD0028F9D010BD6C
:1016A0000038014000BF704701B50D4A128800990B
:1016B00051434FF0E02251610021916101211161FC
:1016C00000BF4FF0E021086900F0010119B100F4FA
:1016D00080310029F5D000214FF0E022116108BDD2
:1016E0001400002070B504460D46A1B20548FFF76E
:1016F000D6FD00BF80210348FFF752FD0028F9D036
:10170000204670BD004400400024FFF76DFB0446F6
:101710000B48844201D0FFF74FFB4820FFF7C6FD7E
:10172000FFF728F8FFF7B0FBFFF706FBFFF7C2FA59
:1017300004A0FEF78BFD01E0FFF75EF8FCE7000078
:1017400078563412626F6F746C6F61646572206DCD
:101750006F64650D0A00000010B500290AD00878F2
:10176000002807D005487844FEF7C0FF002801D0C4
:10177000002010BD0248784410BD00006600000043
:101780005E0000003031323334353637383941426B
:1017900043444546403058003031323334353637D3
:1017A000383961626364656640307800DC1800088F
:1017B00000000020300000006C0100080C19000837
:1017C00030000020600B00008801000810010000BC
:1017D00043000000F8FFFFFF004040404040404011
:1017E00040404141414141404040404040404040F4
:1017F0004040404040404040400502020202020298
:1018000002020202020202020220202020202020E6
:1018100020202002020202020202909090909090FA
:1018200010101010101010101010101010101010B8
:10183000101010100202020202028888888888882C
:101840000808080808080808080808080808080818
:101850000808080802020202400000000000000020
:101860000000000000000000000000000000000078
:101870000000000000000000000000000000000068
:101880000000000000000000000000000000000058
:101890000000000000000000000000000000000048
:1018A0000000000000000000000000000000000038
:1018B0000000000000000000000000000000000028
:1018C0000000000000000000000000000000000018
:1018D00000000000000000000000000000300008D0
:1018E00000000000000000000000000000000000F8
:1018F00000000000000000000000000001020304DE
:0C1900000102030406070809020406089F
:0400000508000131BD
:00000001FF
