:020000040800F2
:10000000E097002045010008555100080F02000844
:10001000DD4F00086F150008318600080000000061
:10002000000000000000000000000000A15F0008C8
:10003000711800080000000097010008E569000839
:100040005F0100085F0100085F0100085F01000810
:100050005F0100085F0100085F0100085F01000800
:100060007D19000893190008A91900085F0100080C
:100070005F0100085F0100085F0100085F010008E0
:100080005F0100085F0100085F0100085F010008D0
:100090005F0100085F0100085F0100085F010008C0
:1000A0005F010008696D00085F0100085F0100083A
:1000B0005F0100085F0100083D6E00085F01000855
:1000C0005F0100085F0100085F0100085F01000890
:1000D0005F010008357E0008A97E00085F01000866
:1000E0004D1900085F0100085F0100085F0100086A
:1000F0005F0100085F0100085F0100085F01000860
:100100005F0100085F010008456E00085F010008FC
:100110005F0100085F010008816E0008BD6E0008E5
:100120005F0100085F0100085F0100085F0100082F
:10013000DFF80CD000F052FD00480047390D0008F0
:10014000E09700200648804706480047FEE7FEE7A4
:10015000FEE7FEE7FEE7FEE7FEE7FEE7FEE7FEE777
:10016000996A000831010008EFF3108072B67047F9
:1001700080F310887047334A1368012B04D04FF086
:1001800001031360304A1060304A116030484FF06C
:10019000805101607047EFF3108272B62948016800
:1001A00091B14FF0000101602748016829B1EFF3D8
:1001B000098121E9F00F0068016024490968096894
:1001C000B1E8F00F81F3098882F310884EF0040E35
:1001D00070471E4908601C494FF00000086019492B
:1001E0004FF0010008601B484FF47F01D0F8002059
:1001F00041EA0201016016484FF080510160164843
:100200000068006880F3088861B662B670471EF027
:10021000040F0CBFEFF30880EFF3098020E9F00F23
:1002200040F804ED1EF0040F0CBF80F3088880F343
:10023000098800B50DF0A4FD5DF804EB4EF0040E46
:100240007047000030010020280100202C01002010
:1002500004ED00E020ED00E008ED00E010B5431AE9
:10026000934209D28318881803E010F8011D03F89F
:10027000011D521EF9D210BD40EA01039B0703D0B5
:1002800009E008C9121F08C0042AFAD203E011F8D5
:10029000013B00F8013B521EF9D210BDD2B201E081
:1002A00000F8012B491EFBD270470022F6E710B57B
:1002B00013460A4604461946FFF7F0FF204610BDD4
:1002C000421E12F8013F002BFBD111F8013B02F84E
:1002D000013B002BF9D1704730B505462A460B4645
:1002E00012F8010B13F8014B08B1A042F8D01CB171
:1002F000002802D06D1CF1E7284630BD10B5044639
:1003000004E00B7800F8013B03B1491C521EF8D2FF
:10031000204610BD421C10F8011B0029FBD1801A99
:10032000704730B504460020034600E05B1C934252
:1003300003D2E05CCD5C401BF8D030BD034611F821
:10034000012B00F8012B002AF9D11846704730B56F
:1003500005460020034600E05B1C934205D2EC5C9E
:10036000C85C201A01D1002CF6D130BD0246C9B2BA
:1003700000E0401C0378002BFBD102E003788B42A5
:1003800003D0401E9042F9D20020704770B5064657
:1003900008F09AFA046805460A220021304600F067
:1003A000B1FA2C6070BDF0B480EA0102D40F4200B3
:1003B000B2EB410F02D20246084611464A0042D033
:1003C000C30DDDB2C1F3C752AD1A202D35DAC1F32A
:1003D000160141F4000204B15242C5F1200602FAAE
:1003E00006F12A411044B3EBD05F23D0C4B1012DF4
:1003F000A0EBC35009DCF0BC4FF0004202EAC3524C
:10040000DBB200F5000000F0BEBA400000F18070E1
:1004100000EBC350A0F1807040EAD170490009E0C0
:10042000490841EAC071A0EBC35000F50000400844
:1004300000EBC350F0BC00F09DBA6142012202EB18
:100440004101001BF6E7F0BC704781F00041AAE7CC
:1004500080F00040A7E780EA010210B502F00043F7
:10046000400022D04A001FD0010E01EB1261C0F300
:100470005600C2F3560240F4000042F40002A0FB12
:10048000022000047F39140400D0401C50EA1240BE
:1004900001D44000491EC2B20C0604EBD010401C2F
:1004A0004008802A02D003E0002010BD20F00100A7
:1004B000002900DA0020184310BD30B480EA0102A0
:1004C00002F0004530F0004221F0004013D090B11E
:1004D000C30DD40DC2F31601C0F31600E41A41F4A3
:1004E000000140F400027D34914201D3641C00E01D
:1004F0004900002C02DA30BC002070474FF40000A5
:100500000023914201D3891A034340084FEA410175
:10051000F7D151B1914202D14FF0004105E002D232
:100520004FF0010101E06FF0010103EBC4502844DA
:1005300030BC00F01FBA2DE9FE4F804681EA03006F
:10054000C00F0C46009021F0004123F00045B8EBAD
:100550000200A94105D24046214690461C460B4662
:10056000024623F00040104347D0270DC7F30A008E
:10057000C3F30A510290401A019040286BDAC3F38A
:10058000130040F4801B0098924620B10023D2EB68
:10059000030A63EB0B0B01985946C0F14002504629
:1005A00000F08FF906460D4650465946019A00F074
:1005B00097F910EB08006141002487EA115284EAA0
:1005C000E7731A4340D0009A62B3019A012A4FEAB6
:1005D000075215DC001B61EB02014FF0004202EAFA
:1005E0000752CDE90042001C41F5801132462B46EE
:1005F00000F006FA03B0BDE8F08F40462146F9E767
:10060000001B61EB0201001C41F5801300185B41E7
:100610002018A2F5001747EB030140EAD570B61980
:100620006D4111E06D084FEA360645EAC0754FEAA4
:100630000752001B61EB0201001C41F580114908C3
:100640004FEA30000019514132462B4603B0BDE855
:10065000F04F00F0C6B90098012240000023D0EB13
:10066000020263EBE073009821464FEAE074B8EBB6
:10067000000061EB0401E9E783F000435BE781F0F0
:10068000004158E72DE9FE4F81EA030404F00044DD
:1006900021F0004100944FF0000B23F0004350EA9A
:1006A00001045ED052EA03045BD0C3F30A54C1F3E1
:1006B0000A552C44A4F2F3340194A0FB0254C1F374
:1006C000130141F48011C3F3130343F4801301FBBE
:1006D000024400FB034E840A970A44EA815447EA25
:1006E0008357A4FB076802958D0A05FB07854FEA2F
:1006F000932C04FB0C542705029D4FEA065847EA49
:100700001637B5EB08056EEB070C870E920E47EA1D
:10071000811742EA8312A7FB0201B6EB0B0164EBDF
:1007200000042B0D43EA0C335E1844EB1C50DA46F0
:100730005146E7FB0201C5F313044FEA0B3343EACA
:1007400014534FEA0432019C43EA0603A4F10C045B
:100750000294009CCDE900B400F052F903B0BDE86A
:10076000F08F00200146F9E7C10F80EAE0700844ED
:10077000CA079623002100F006B9962300221146ED
:1007800000F001B920F00040C10DC0F3160040F4A4
:1007900000007F2901DA00207047962903DCC1F1AF
:1007A0009601C840704796398840704700F0004273
:1007B00030F000400AD0C10D01F56071C0F31600A1
:1007C00042EA0151C2084007114370470020014628
:1007D000704701F0004330B421F0004150EA0102BB
:1007E00006D00A0DA2F56072C1F31301002A02DCE3
:1007F00030BC00207047440F44EAC104C100E01837
:1008000030BC00EBC25000F0B5B80000002801DB9E
:10081000C0F10040002901DBC1F100418142704775
:10082000002801DBC0F10040002901DBC1F10041DB
:100830008842704730B50B46014600202022012433
:1008400009E021FA02F59D4205D303FA02F5491B9E
:1008500004FA02F52844151EA2F10102F1DC30BDB4
:100860002DE9F05F0546002092469B4688460646E5
:10087000814640241BE0284641464746224600F078
:10088000BFF953465A46C01A914110D31146184633
:10089000224600F016F82D1A67EB01084F46224653
:1008A0000120002100F00DF817EB00094E41201E39
:1008B000A4F10104DFDC484631462A464346BDE840
:1008C000F09F202A04DB203A00FA02F10020704752
:1008D0009140C2F1200320FA03F31943904070477E
:1008E000202A06DBCB17203A41FA02F043EAE073F4
:1008F00006E041FA02F3D040C2F1200291400843E1
:10090000194670472DE9F04791460F468046044648
:10091000002614F8015B2DB100F082F90068405DFB
:10092000C007F6D12B2D02D02D2D18D0641E4A46BB
:100930003946204600F078F927B13968A14201D143
:10094000C7F8008071054FF002040BD54042002823
:1009500003DD07F0B9FF0460A007BDE8F08746F4A7
:100960008066E4E70028F8DA07F0AEFF04606FF075
:100970000040F2E70029A8BF7047401C490008BFAB
:1009800020F00100704710B4B0FA80FC00FA0CF0BF
:1009900050EA010404BF10BC704749B1CCF12004F7
:1009A00021FA04F411FA0CF118BF01212143084384
:1009B000A3EB0C01CB1D4FEA00614FEA102042BFB0
:1009C000002010BC704700EBC35010440029A4BFA6
:1009D00010BC7047401C490008BF20F0010010BC4B
:1009E000704710B5141E73F1000408DA401C41F181
:1009F000000192185B411A4301D120F0010010BDA3
:100A00002DE9F04D92469B4611B1B1FA81F202E018
:100A1000B0FA80F220329046FFF753FF04460F46AB
:100A200040EA0A0041EA0B0153465A46084313D0F4
:100A3000114653EA010019D0C8F14002504600F0B7
:100A4000DFF805460E46504659464246FFF739FF45
:100A5000084305D0012004E020463946BDE8F08D6A
:100A60000020054346EAE0762C4337430A986305A5
:100A7000E40AA0EB08000022FD0A44EA47540A30C9
:100A800002D500200146E9E7010510196941DDE9B9
:100A9000084500196941BDE8F04DA2E72DE9F04D88
:100AA00081EA030404F0004B21F0004514464FF0A6
:100AB000000A23F0004150EA050220D054EA010266
:100AC0001DD0C5F30A570246C5F31303C1F3130043
:100AD000C1F30A5640F4801543F48013A7EB0608CF
:100AE000101BD64608F2FD3873EB050002D308F15F
:100AF000010801E092185B41B8F1000F03DA002011
:100B00000146BDE8F08D00204FF480110646844672
:100B10000EE0171B73EB050705D3121B63EB0503F0
:100B200006434CEA010C49084FEA300092185B4139
:100B300050EA0107EDD152EA030012D082EA040024
:100B400083EA0501084305D0101BAB4106D2012200
:100B5000002306E000224FF0004302E06FF00102A4
:100B600053101AEB06004CEB085110EB0A0041EB56
:100B70000B01BDE8F04DFFF734BFC1F30A52C1F3DA
:100B8000130140F2FF3341F480119A4202DA00204F
:100B90000146704740F233439A42A2F2334202DCEC
:100BA000524200F02DB8FFF78CBE000030B5041E95
:100BB00071F1000404DB4FF00044404264EB01019A
:100BC000141E73F1000405DB1C464FF00043524233
:100BD00063EB0403994208BF904230BD064C074DB9
:100BE00006E0E06840F0010394E8070098471034FD
:100BF000AC42F6D3FFF7A0FAC0330108E033010896
:100C0000202A04DB203A21FA02F00021704721FA61
:100C100002F3D040C2F120029140084319467047C8
:100C200000487047542B01082DE9F05F8246007898
:100C3000002715468B460AF10104B946302801D039
:100C40009DB113E014F8010B0127782803D0582830
:100C500001D045B10AE00DB1102D07D100271025B4
:100C600014F8010B02E0082500E00A250026B04632
:100C70000EE005FB080005FB06F1012701EB10461D
:100C80001FFA80F8B6F5803F00D3B94614F8010B7F
:100C9000294600F018F80028EBDABBF1000F05D068
:100CA0000FB1641E00E05446CBF80040B9F1000FCC
:100CB00006D007F009FE02210160C81EBDE8F09FC2
:100CC00048EA0640FAE73A2800D2303820F02002FD
:100CD000412A01D3A2F13700884201D34FF0FF30FF
:100CE000704770B58C1810F8015B15F0070301D13F
:100CF00010F8013B2A1106D110F8012B03E010F87F
:100D0000016B01F8016B5B1EF9D12B0705D40023A1
:100D1000521E0DD401F8013BFAE710F8013BCB1A43
:100D2000921C03E013F8015B01F8015B521EF9D538
:100D3000A142D8D3002070BD10B50FF0E9FC00200F
:100D400010BD21B1826842F00102826003E0826836
:100D500022F001028260704700B585B0404800F083
:100D60008DF80020009001208DF8040000208DF8FF
:100D700005004FF460200290002003900E208DF8B3
:100D800010006946364800F0B1F807231A460B21D7
:100D9000334800F0D3F8072306220A21304800F038
:100DA000CDF80723082202212D4800F0C7F80723B9
:100DB000092201212A4800F0C1F8072301220C2151
:100DC000274800F0BBF8072302220E21244800F038
:100DD000B5F8072303220621214800F0AFF80723C6
:100DE000042205211E4800F0A9F80723052204214A
:100DF0001B4800F0A3F807230A220D21184800F031
:100E00009DF807230B221946154800F097F8072391
:100E10000C220F21124800F091F807230D2209211E
:100E20000F4800F08BF80723092208210C4800F036
:100E300085F801210A4800F015F801210848FFF75C
:100E400080FF074800F0D6F800BF054800F044F8DE
:100E50000028FAD1024800F0DDF805B000BD00001E
:100E60000024014021B1826842F48072826003E074
:100E7000826822F4807282607047000010B50446D8
:100E80001248844208D10121401504F06FFF00216F
:100E9000601504F06BFF17E00D48844208D1012172
:100EA000001504F063FF0021201504F05FFF0BE044
:100EB0000848844208D10121C80304F057FF0021EB
:100EC0004FF4004004F052FF10BD00000024014028
:100ED00000280140003C0140014600208A6802F0E1
:100EE00008020AB1012000E00020704730B5024638
:100EF0000020002350680F4C20400D790C6844EA14
:100F000005242043506090680B4C2040D1E90254E6
:100F10002C434D7944EA450420439060D06A20F484
:100F200070000C7C641EE4B2234340EA0350D0629C
:100F300030BD0000FFFEF0FFFDF7F1FFF0B5044605
:100F40000D4600200021092D11DDE068A5F10A06FB
:100F500006EB4607072606FA07F18843A5F10A06BD
:100F600006EB460603FA06F10843E0600CE0206950
:100F700005EB4507072606FA07F1884305EB45060A
:100F800003FA06F108432061072A0FDA606B561E48
:100F900006EB86071F2606FA07F18843561E06EB66
:100FA000860605FA06F10843606322E00D2A0FDA8F
:100FB000206BD61F06EB86071F2606FA07F188432B
:100FC000D61F06EB860605FA06F10843206310E0FB
:100FD000E06AA2F10D0606EB86071F2606FA07F166
:100FE0008843A2F10D0606EB860605FA06F10843D2
:100FF000E062F0BD816841F008018160704721B175
:10100000826842F4A002826003E0826822F4A002B7
:1010100082607047816841F0040181607047000080
:1010200010B50446022000F0EFFB00287ED002201D
:1010300000F0A0FAFD480089FD49FE4A127821F827
:1010400012000846FB49097830F81100FA4909688E
:101050000844F9490860F548408BF849F54A127888
:1010600021F812000846F349097830F81100F449D4
:1010700009680844F2490860EC480088F149ED4AE3
:10108000127821F812000846EA49097830F8110070
:10109000ED4909680844EC490860E4484088EB4998
:1010A000E44A127821F812000846E249097830F83B
:1010B0001100E74909680844E5490860DB48808871
:1010C000E449DC4A127821F81200D848C088E24985
:1010D000D84A127821F81200DE48D649097830F84B
:1010E0001100DE4909680844DC490860DA48D14942
:1010F000097830F81100DA4909680844D8490860CD
:10110000CA48408AD749CB4A127821F812000846CB
:10111000C849097830F81100D34909880844D249F0
:101120000880C248818AD148C24A00E0CAE11278E8
:1011300020F81210BF49097830F81100CC4909880D
:101140000844CB490880B948C08ACA49B94A1278CC
:1011500021F812000846B749097830F81100C6494D
:1011600009880844C4490880B048018BC348B14A83
:10117000127820F81210AF49097830F81100C049F0
:1011800009880844BE490880A848018ABD48A94A80
:10119000127820F81210A548C089BB49A54A1278D8
:1011A00021F81200A1488189B848A24A127820F893
:1011B00012109E484189B6489E4A127820F81210B3
:1011C0009C49087800EBD0714910A0EB410181BB2C
:1011D000AE489849097830F81100AE4909680844CA
:1011E000AC490860AA489349097830F81100AA4927
:1011F00009680844A8490860A3488E49097830F86E
:101200001100A64909680844A44908609D48894915
:10121000097830F81100A24909680844A04908601B
:101220000121084601F0BAFD0121022001F0B6FDBE
:1012300030E0FFE795487F49097830F81100994977
:10124000096808449749086091487A49097830F854
:101250001100954909680844934908608A4875490E
:10126000097830F811009149096808448F490860ED
:1012700084487049097830F811008D49096808449C
:101280008B4908600021012001F088FD0021022027
:1012900001F084FD67480078401C142190FBF1F2B6
:1012A00001FB1200634908700846007800287DD1D0
:1012B000614800681421B0FBF1F0208100205E49F4
:1012C00008605F4800681421B0FBF1F060810020E5
:1012D0005B4908605C4800681421B0FBF1F0208095
:1012E0000020594908605A4800681421B0FBF1F009
:1012F0006080002056490860584800681421B0FBFF
:10130000F1F0A0800020554908605548006814217C
:10131000B0FBF1F0E080002051490860524800889D
:10132000142190FBF1F0A08100204F490880504823
:101330000088142190FBF1F0E08100204C490880E6
:101340004D480088142190FBF1F0208200204A498A
:1013500008804B480088142190FBF1F06082002047
:10136000474908804F4800684A490968401A4000C8
:101370001421B0FBF1F0A082A18A4FF4A57201FB09
:1013800002F0C11700EB11510913A1820020454959
:10139000086040490860444800683F490968401AAD
:1013A00040001421B0FBF1F0E08200E03AE0E18A75
:1013B00001FB02F0C11700EB11510913E18200207B
:1013C0003949086034490860384800683349096879
:1013D000401A40001421B0FBF1F02083218B01FB67
:1013E00002F0C11700EB11510913218300202F498E
:1013F00008602A4908602E48006829490968401A8F
:1014000040001421B0FBF1F06083618B01FB02F01E
:10141000C11700EB115109136183002024490860B2
:101420001F49086001200EF0E5FA43E0340A00206D
:10143000880700202C00002040000020B00700207A
:1014400044000020E80600203000002010070020A3
:1014500034000020380700206007002038000020FA
:101460003C000020D8070020480000200008002091
:101470004A000020280800204C00002050080020CE
:101480004E000020F0080020C80800207808002046
:10149000A008002050000020540000205800002028
:1014A0005C00002060000020640000206800002034
:1014B0006C00002001210648FFF7A1FD01200EF07D
:1014C00099FA02E002200EF095FA002010BD00000B
:1014D0000024014010B500214FF0006003F01AFF16
:1014E0004FF4A06003F00CFF04F050FC03F033FE57
:1014F00000F06CFA00F0B2FCFFF72EFC06F00EFCD8
:1015000000F052F805F0F8FC01F04CFB03F060F835
:1015100003F0A8F903F0F8FA04F026FD05F03AFC10
:1015200003F0FCFF05F052F810BD70B50246002430
:101530000020002318E04D1EA8B211E0451E32F82D
:10154000155032F81060B54208DD451E32F81540DE
:1015500032F8106022F8156022F81040451EA8B23B
:101560009842EBDC5D1CABB28B42E4DB70BD00BF8C
:10157000FEE7000000F0805111B10349086001E06E
:101580000249486070470000040402400000024025
:1015900021B1026842F00102026004E002684FF6E5
:1015A000FE731A400260704700B58BB0394800F0F6
:1015B00081F83948009039480190002002900E20AF
:1015C0000390002004908020059040000690800049
:1015D0000790202008900002099000200A90694698
:1015E0002C4800F027F901212A48FFF7D1FF2948AC
:1015F000503000F05FF82A4800902A4801900020FF
:101600000290C820039000200490802005900020C4
:101610000690079008904FF44050099000200A90DF
:1016200069461C48503000F005F901211948503036
:10163000FFF7AEFF17483C3000F03CF81848009028
:10164000194801901020029000200390694611482B
:101650003C3000F0EFF801210E483C30FFF798FFD6
:101660000C48783000F026F810480090104801909F
:1016700010200290002003900990694605487830B8
:1016800000F0D8F8012103487830FFF781FF0BB054
:1016900000BD0000080002404C240140340A002034
:1016A000043801406C120020341300200444004030
:1016B000700A002001684FF6FE721140016000219F
:1016C000016041608160C1604B49884208D14A494C
:1016D0000839496841F00F01474A083A51608AE0E9
:1016E00045491431884208D143490839496841F0D5
:1016F000F001414A083A51607DE03F492831884273
:1017000008D13D490839496841F470613A4A083ABC
:10171000516070E038493C31884208D13649083977
:10172000496841F47041344A083A516063E03249F3
:101730005031884208D130490839496841F4702154
:101740002D4A083A516056E02B496431884208D14D
:1017500029490839496841F47001274A083A51601B
:1017600049E025497831884208D123490839496838
:1017700041F07061204A083A51603CE01F498842BC
:1017800006D1011F096841F00F01021F116032E00C
:101790001A491431884208D11849091F096841F0D3
:1017A000F001164A121F116025E0144928318842C1
:1017B00008D11249091F096841F470610F4A121FCC
:1017C000116018E00D493C31884208D10B49091FCE
:1017D000096841F47041094A121F11600BE0074982
:1017E0005031884207D10549091F096841F4702129
:1017F000024A121F116070470800024008040240AC
:101800000146486880B2704701460020002201F07E
:10181000805313B1054B1A6801E0054B1A6802EAC0
:1018200001030BB1012000E00020704700040240DA
:101830000000024010B50022026847F6F0739A4398
:101840000C6A8B6823430C6923434C6923438C69DE
:101850002343CC6923434C6A23438C6A23431A43B2
:101860000260CB6843600B6883604B68C36010BD47
:10187000704770B505460C46152C01DD012070BD82
:1018800001F0F6F960B92146284604F077FE012000
:1018900004F07AFE0021284604F073FE0020EEE7F3
:1018A0000120ECE70146C878012801D001207047EB
:1018B0000878012801D00120F9E7487898B988789C
:1018C00028B901201F4A106088700020EFE788784F
:1018D000012808D11B4A121D1060002088700120C9
:1018E00048700020E3E78888002819DD888800EB2D
:1018F000D0725210A0EB420212B90220114A1060BD
:10190000888800EBD0725210A0EB4202012A03D16A
:1019100002200C4A121D10608888401E88800FE04B
:1019200009480068401C084A10601046006847F2E9
:101930003052904204D30020034A1060087088801F
:101940000020B4E7101401407000002010B54FF4DF
:10195000805000F0CDF828B14FF4805000F030F8FE
:1019600003F0E4FB4FF4004000F0C2F828B14FF45C
:10197000004000F025F803F09BFB10BD10B50420DB
:1019800000F0B6F820B103F01DF8042000F018F8BC
:1019900010BD10B5082000F0ABF820B102F0C4FE75
:1019A000082000F00DF810BD10B5102000F0A0F8D0
:1019B00020B102F06BFD102000F002F810BD000015
:1019C0000149086070470000140401401FB501215F
:1019D000402004F0BBF90121084604F0B7F94FF4A8
:1019E0000040ADF80C0048208DF80F0003A92148F5
:1019F00000F0D4FD4FF48050ADF80C0048208DF875
:101A00000F0003A91B4800F0C9FD0F21042000F0BE
:101A1000A5FD4FF40040019000208DF80800102033
:101A20008DF8090001208DF80A0001A800F074F873
:101A30000C21042000F092FD4FF480500190002012
:101A40008DF8080010208DF8090001208DF80A009B
:101A500001A800F061F828208DF8000000208DF822
:101A600001008DF8020001208DF80300684603F0A4
:101A70000FFC1FBD001801401CB50421084600F0F2
:101A80006DFD1020009000208DF804000C208DF8D2
:101A9000050001208DF80600684600F03DF81CBDE9
:101AA0001CB50321042000F059FD082000900020FF
:101AB0008DF804000C208DF8050001208DF806003B
:101AC000684600F029F81CBD1CB50221042000F076
:101AD00045FD0420009000208DF804000C208DF8B6
:101AE000050001208DF80600684600F015F81CBDC1
:101AF000014600200022074B1B6803EA0102054B48
:101B000014331B680B4013B10AB1012000E0002020
:101B10007047000000040140002123498279002A17
:101B20003AD00A46126803689A430B461A600A1DA7
:101B3000126803689A430B1D1A60027911440A68FF
:101B400003681A430A60184A0832126803689A4305
:101B5000154B08331A601A1D126803689A43124B1A
:101B60000C331A604279102A0ED11A1F12680368CA
:101B70001A430D4B08331A601A1D126803681A4382
:101B8000094B0C331A600DE00749427911440A6889
:101B900003681A430A6005E0027911440A68036881
:101BA0009A430A6070470000000401400020014988
:101BB00008707047A90000201CB515480078154929
:101BC0000978884223D01248007820B1012806D035
:101BD000FF2817D108E010200F49086012E01020FC
:101BE0000D49091F08600DE010200B4908600BA08B
:101BF0002A21124B12A2CDE9001018A1012008F0F1
:101C000023FF00BF00BF02480078024908701CBDD6
:101C1000A9000020AA00002014140140656C65632F
:101C200074726F6C79736973207374617465206565
:101C300072726F722021212100000000501F0108E4
:101C40002E2E5C4150505C7372635C656C656374EE
:101C5000726F6C797369732E630000004E4F5F548E
:101C6000414700000149C860704700000020024061
:101C700030B5044604254FF4302000F085F80546C1
:101C8000042D17D10C48006940F002000A49086190
:101C900008464461006940F0400008614FF430207C
:101CA00000F072F805460448006941F6FD710840ED
:101CB00001490861284630BD0020024004200B493C
:101CC000C96801F0010109B101200EE00749C968A6
:101CD00001F0040109B1022007E00449C96801F0DC
:101CE000100109B1032000E00420704700200240E9
:101CF0000348006940F08000014908617047000016
:101D00000020024078B506460C46042500200090CD
:101D1000E80200F039F80546042D24D11348006983
:101D200040F00100114908613480E80200F02CF80D
:101D30000546042D10D1B01C0090200C009908809D
:101D4000E80200F021F805460848006941F6FE71F6
:101D500008400649086106E00448006941F6FE7142
:101D6000084002490861284678BD00000020024072
:101D700002480349486003484860704723016745AB
:101D800000200240AB89EFCD00B502460423FFF7E7
:101D900095FF034603E0FFF791FF0346521E012B18
:101DA00001D1002AF7D102B90523184600BD000071
:101DB000002002490870487070470000A50000200C
:101DC0002148007821490978884219D01E480078B6
:101DD00030B1012808D002280BD0FF280BD109E030
:101DE00008201B49086006E008201949091F0860FF
:101DF00001E000E000BF00BF1348007813490870FD
:101E0000114840781349097888421BD00E48407821
:101E100030B1012809D002280DD0FF280DD10BE0E8
:101E20004FF400500C49086007E04FF400500A4995
:101E3000091F086001E000E000BF00BF02484078D1
:101E40000449087070470000A5000020A70000208A
:101E5000140C0140A80000201418014008B501210D
:101E6000FE4800F027FC0820ADF8000010208DF897
:101E7000030003208DF802006946F94800F08EFB4C
:101E800003F000FE0820ADF8000010208DF80300DC
:101E900003208DF802006946F24800F07FFB03F052
:101EA000E9FD8020ADF8000010208DF8030003202C
:101EB0008DF802006946EC4800F070FB03F0D2FD9B
:101EC0004020ADF8000010208DF8030003208DF8AD
:101ED00002006946E54800F061FB03F0DDFD0120EA
:101EE000ADF8000004208DF803006946DF4800F0DB
:101EF00055FB0220ADF8000004208DF80300694670
:101F0000DA4800F04BFB2020ADF8000010208DF8DF
:101F1000030003208DF802006946D44800F03EFB20
:101F200003F080FC0420ADF8000000208DF80300D1
:101F30006946CF4800F032FB1020ADF800000020C9
:101F40008DF803006946CA4800F028FB0220ADF86E
:101F5000000000208DF803006946C54800F01EFB14
:101F60000120ADF8000000208DF803006946C0484C
:101F700000F014FB0420ADF8000000208DF80300F1
:101F80006946B74800F00AFB0220ADF800000020C7
:101F90008DF803006946B24800F000FB4FF4805012
:101FA000ADF8000010208DF8030003208DF802002A
:101FB0006946AB4800F0F2FA0021012000F0EEFE85
:101FC0004FF48050ADF8000010208DF8030003207E
:101FD0008DF802006946A64800F0E0FA00210220D0
:101FE00000F0DCFE0120ADF8000004208DF80300B5
:101FF00069469B4800F0D2FA4FF40060ADF800004B
:1020000004208DF803006946994800F0C7FA4FF4A0
:102010008070ADF8000010208DF8030003208DF8CB
:1020200002006946924800F0B9FA4FF48071904876
:1020300000F093FB8020ADF8000010208DF8030025
:1020400003208DF802006946894800F0A7FA802134
:10205000874800F082FB4FF40070ADF800001020BC
:102060008DF8030003208DF802006946804800F0D7
:1020700095FA4FF400717E4800F06FFB4FF48070CA
:10208000ADF8000010208DF8030003208DF8020049
:102090006946734800F082FA4FF48071704800F08E
:1020A0005AFB0121734800F005FB4FF48050ADF856
:1020B000000010208DF8030003208DF8020069460F
:1020C000694800F06BFA4FF480506749143108609A
:1020D0004020ADF8000000208DF8030069466048FC
:1020E00000F05CFA4FF40060ADF8000018208DF8A5
:1020F000030003208DF8020069465B4800F04EFAA9
:102100004FF48040ADF8000004208DF803006946CC
:10211000554800F043FA4FF40050ADF8000010208D
:102120008DF8030003208DF8020069464E4800F048
:1021300035FA4FF400504C49143108608000ADF876
:10214000000004208DF803006946474800F026FA95
:102150004FF40060ADF8000010208DF8030003205C
:102160008DF802006946414800F018FA4FF400600B
:102170003E49143108602020ADF8000000208DF8A1
:1021800003006946364800F009FA4FF48060ADF864
:10219000000018208DF8030003208DF80200694626
:1021A000314800F0FBF94FF40070ADF80000042056
:1021B0008DF8030069462D4800F0F0F94FF4806077
:1021C000ADF8000010208DF8030003208DF8020008
:1021D0006946264800F0E2F94FF480602349143143
:1021E00008608010ADF8000004208DF803006946F7
:1021F0001E4800F0D3F90820ADF8000000208DF84B
:10220000030069461A4800F0C9F98020ADF80000C3
:1022100000208DF803006946114800F0BFF9402006
:10222000ADF8000010208DF8030003208DF80200A7
:1022300069460D4800F0B2F940200B49143108609E
:102240002020ADF8000010208DF8030003208DF849
:1022500002006946044800F0A1F90DE000023000D8
:102260000008014000140140000C0140001801402A
:10227000001001400003180020209E490860ADF8BE
:10228000000000208DF8030069469B4800F086F9A5
:102290001020ADF800008DF8030003208DF8020037
:1022A00069469448143800F079F910209149086083
:1022B0000820ADF8000010208DF8030003208DF8F1
:1022C000020069468B48143800F068F908208949F3
:1022D00008601020ADF8000000208DF8030069466A
:1022E000864800F05BF94FF40050ADF80000102074
:1022F0008DF8030003208DF802006946804800F045
:102300004DF94FF400507E49143108600120ADF8BA
:10231000000000208DF8030069467648143800F06C
:102320003DF90220ADF8000000208DF80300694659
:102330007048143800F032F91020ADF800008DF824
:10234000030003208DF8020069466E4800F026F96C
:1023500010206C4914310860C001ADF80000102055
:102360008DF8030003208DF802006946654800F0EF
:1023700015F94FF40061634800F0EDF94FF4806007
:10238000ADF8000010208DF8030003208DF8020046
:1023900069465C4800F002F94FF48061594800F04A
:1023A000DAF94FF40070ADF8000010208DF803004A
:1023B00003208DF802006946524800F0EFF84FF410
:1023C0000071504800F0C7F94FF48070ADF800007C
:1023D00010208DF8030003208DF80200694649485B
:1023E00000F0DCF84FF48071464800F0B4F90121A8
:1023F000080300F05FF94FF40040ADF8000028201A
:102400008DF8030069463F4800F0C8F84FF480405B
:10241000ADF8000028208DF803006946394800F027
:10242000BDF84FF40050ADF8000028208DF80300EF
:102430006946344800F0B2F84FF48050ADF800001F
:1024400028208DF8030069462E4800F0A7F80120E7
:10245000ADF8000010208DF8030003208DF8020075
:102460006946284800F09AF80121264800F073F9DF
:102470000220ADF8000010208DF8030003208DF835
:10248000020069461F4800F089F802211D4800F04B
:1024900062F92020ADF8000018208DF80300032019
:1024A0008DF802006946174800F078F84020ADF832
:1024B000000048208DF803006946124800F06EF8CD
:1024C0004FF40070ADF8000018208DF803000320D1
:1024D0008DF802006946094800F060F84FF480600A
:1024E000ADF8000048208DF803006946034800F06D
:1024F00055F808BD140C01400010014000080140CF
:10250000001801400014014008B51020ADF800008B
:1025100048208DF803006946014800F03FF808BDE7
:102520000018014008B50820ADF8000048208DF8DB
:1025300003006946014800F031F808BD0018014069
:1025400008B50420ADF8000048208DF80300694666
:10255000014800F023F808BD0018014030B5002202
:102560008B071C0F0F2303FA04F20B4B8C1053F84C
:1025700024309343084C8D1044F8253023468C10AA
:1025800053F824308C07240F00FA04F42343024C40
:102590008D1044F8253030BD080001402DE9F04190
:1025A000024600250026002000230024002791F881
:1025B00003C00CF00F0591F803C00CF0100CBCF137
:1025C000000F03D091F802C04CEA050591F800C055
:1025D000BCF1000F31D0146800202BE04FF0010C4B
:1025E0000CFA00F3B1F800C00CEA03069E4220D1B9
:1025F00083004FF00F0C0CFA03F7BC4305FA03FC01
:102600004CEA040491F803C0BCF1280F06D14FF046
:10261000010C0CFA00FCC2F814C00AE091F803C0E7
:10262000BCF1480F05D14FF0010C0CFA00FCC2F8C8
:1026300010C0401C0828D1D31460B1F800C0BCF110
:10264000FF0F34DD546800202EE000F1080C4FF03D
:10265000010808FA0CF3B1F800C00CEA03069E4228
:1026600021D183004FF00F0C0CFA03F7BC4305FA9D
:1026700003FC4CEA040491F803C0BCF1280F05D117
:1026800000F1080C08FA0CF8C2F8148091F803C0A5
:10269000BCF1480F07D100F1080C4FF0010808FA0F
:1026A0000CF8C2F81080401C0828CED35460BDE856
:1026B000F0810000F0B50A46002300240021002527
:1026C00000F00046B6F1004F02D11D4EF16901E065
:1026D0001B4E7168C0F3034583B200F44016B6F593
:1026E000401F08D121F07061154E766826F07066A3
:1026F000134F7E6012E000F48016B6F5801F06D1FD
:10270000032606FA05F4A14341F0706106E0460D88
:10271000360103FA06F6B14341F0706122B1460D6D
:10272000360103FA06F6314300F00046B6F1004FD9
:1027300002D1034EF16101E0014E7160F0BD000075
:10274000000001400246002093680B400BB10120BD
:1027500000E0002070474161704701617047000050
:1027600002460E2A40D2DFE802F0070B0F131723B0
:102770001F272B33372F3B1B1F480088086037E08B
:102780001D484088086033E01B48808808602FE0BF
:102790001948C08808602BE017480089086027E0C6
:1027A00015484089086023E01348808A08601FE0CC
:1027B0001148C08A08601BE00F48008B086017E0D2
:1027C0000D48408B086013E00B48008A08600FE05A
:1027D0000948808908600BE00748C089086007E065
:1027E0000548408A086003E0002008600120704727
:1027F00000BF0020FBE70000CC0600200148407825
:10280000704700001800002010B50246002100208B
:1028100013781B06547843EA0443947843EA04236C
:10282000D47843EA040101F010030BB1431CD8B281
:1028300001F020030BB1431CD8B201F040030BB1EF
:10284000031DD8B201F480730BB1431CD8B201F45C
:1028500000730BB1431CD8B201F480330BB1431C9D
:10286000D8B201F400230BB1831CD8B201F4801359
:102870000BB1431CD8B201F400130BB1431CD8B206
:1028800001F480030BB1431CD8B201F400030BB177
:10289000431CD8B210BD000001480078704700000A
:1028A000A90000200148407870470000A5000020E2
:1028B0000148007870470000A50000203EB504469E
:1028C000042C0CDB07A052210D4B0EA2CDE9010414
:1028D000009113A1012008F0B7F8FF203EBD124877
:1028E000005DFBE76E6F7420666F756E6420477243
:1028F0006F756E64436865636B202564000000009B
:10290000921E01082E2E5C4150505C7372635C670E
:10291000726F756E645F636865636B2E63000000A1
:102920004E4F5F54414700007A00002010B5014629
:102930000A4802780A4803780020084C2070084CA6
:10294000207009B9104610BD012904D10120044CA2
:1029500020731846F7E7FF20F5E70000380900204C
:1029600048090020014800787047000074000020EA
:102970000148007870470000A4000020014890F949
:102980003D007047580900200148808A00B2704716
:10299000580900200148408F00B2704758090020B4
:1029A000034890F93D000249098E484300B2704740
:1029B00058090020014890F97D007047580900200F
:1029C0000248B0F8540000B27047000058090020D7
:1029D0000248B0F87A0000B27047000058090020A1
:1029E000034890F97D10B0F87000414308B2704779
:1029F000580900201CB5044614B90A4800781CBDCB
:102A0000012C02D107484078F9E707A065210C4B5B
:102A10000CA2CDE9001011A1012008F015F8FF204B
:102A2000EDE70000AD0000206E656275696C7A65A7
:102A300072206973206E6F7420657869737400006A
:102A4000941F01082E2E5C4150505C7372635C6EC3
:102A5000656275696C7A65722E6300004E4F5F5433
:102A6000414700000148007870470000AB0000209B
:102A70003EB50446032C0CDB07A00E210E4B0FA223
:102A8000CDE90104009113A1012007F0DDFFFF2033
:102A90003EBD1248005DFBE76E6F7420666F756E79
:102AA0006420526563686167496E66726153746140
:102AB00074655B25645D0000BD2A01082E2E5C4113
:102AC00050505C7372635C72656368617267652EF7
:102AD000630000004E4F5F54414700007002002029
:102AE00001480078704700001800002010B501214F
:102AF0000148FFF727FE10BD0018014010B5022164
:102B00000148FFF71FFE10BD001801400148D0F832
:102B10008400704758090020014800687047000091
:102B2000100000203EB504460025042C0DDB0DA04E
:102B30009521114B11A2CDE90104009115A10120AD
:102B400007F082FF4FF6FF703EBD154830F81400C5
:102B5000B0F57A7F02DD4FF47A70F5E7104830F86F
:102B60001400F1E76E6F7420666F756E6420756CEB
:102B7000735B25645D000000271F01082E2E5C4159
:102B800050505C7372635C756C747261736F756EB8
:102B9000642E6300756C747261736F756E640000EF
:102BA000180A002010B50C2202490348FDF756FB15
:102BB00010BD0000E8F7FF1F280A002010B50446EA
:102BC0002CB94FF400410548FFF7BCFD10BD4FF490
:102BD00080710348FFF7B6FDF8E70000000C0140E4
:102BE00000180140014611B90248007870470148B9
:102BF0004078FBE77500002001464FF6FF707047F4
:102C00001CB5044606A02021114B12A2CDE90010EC
:102C100015A1042007F018FF4FF6FF701CBD00003F
:102C20006572726F722C207468652066756E6374AD
:102C3000696F6E2073686F756C64206E6F742062AC
:102C4000652063616C6C6564202121210000000017
:102C5000CB1F01082E2E5C4150505C7372635C7771
:102C600065616B2E630000007765616B00000000FA
:102C7000014800787047000018090020002004E097
:102C80000021034A1154411CC8B20428F8DB7047E4
:102C90007A00002010B586B002A90620FFF760FD7B
:102CA00048B12AA01621324B32A2CDE9001038A13A
:102CB000012007F0C9FE03A90520FFF751FD48B127
:102CC00022A018212A4B2BA2CDE9001030A101200F
:102CD00007F0BAFE04A90720FFF742FD48B11BA088
:102CE0001A21234B23A2CDE9001029A1012007F0CE
:102CF000ABFE05A90820FFF733FD48B113A01C2146
:102D00001B4B1CA2CDE9001021A1012007F09CFE65
:102D1000002417E002A850F82400B0F5007F03DB80
:102D2000002002A941F8240002A850F82400401015
:102D300002A941F8240002A810F8240016490855F9
:102D4000601CC4B2042CE5DB06B010BD67657420BE
:102D50006261747465727920766F6C746167652046
:102D60006164632076616C7565206661696C2E0014
:102D70007F1E01082E2E5C4150505C7372635C67AD
:102D8000726F756E645F636865636B2E630000002D
:102D90004E4F5F54414700007A00002070B5054651
:102DA0000C46012D0AD124B901030B48FFF7D3FCCF
:102DB00004E04FF480510848FFF7CFFC022D0AD100
:102DC00024B9E9020548FFF7C6FC04E04FF480513E
:102DD0000248FFF7C2FC70BD00080140001001402E
:102DE00010B54FF4E1300E49C1F8B80101208870E8
:102DF000002008704870A1F8BC01A1F8BE01A1F83C
:102E0000C00148608020C1F8B401C1F8B0010020C1
:102E1000A1F8520301F1080001F060FF10BD0000AD
:102E20007C02002010B502F035FEC82007F0DCFA65
:102E300002F031FE00200149887010BD7C020020A4
:102E400030B503460C460025002104E0585C2844B8
:102E5000C5B2481CC1B2A142F8DB954201D00120A5
:102E600030BD0020FCE700002DE9F04385B04FF0B5
:102E70000009764890F8AC0100EB800173480830F7
:102E800000EB810080780106704890F8AC0100EBFF
:102E900080026E48083000EB8200C07841EA0041B1
:102EA0006A4890F8AC0100EB80026848083000EBFB
:102EB0008200007941EA0020644991F8AC1101EBED
:102EC00081026249083101EB8201497940EA01053A
:102ED0005E4890F8AC0100EB80015C48083000EBE4
:102EE0008104A41D05F0100018B1207803F06CF8DF
:102EF000641C05F0200018B1207803F05FF8641C12
:102F000005F04000002845D06078217840EA012093
:102F100006B2A41C6078217840EA012007B2A41C04
:102F200030460DF0B3FD4FFA80F8404603F064F8E8
:102F300038460DF0ABFD4FFA80F8404603F0F4F848
:102F4000B6F1000801DB414601E0C8F1000188B29A
:102F500003F0A6F8B7F1000801DB414601E0C8F133
:102F6000000188B203F034F939480068384909682B
:102F7000491C374A116037A102AAC1C2019140F22F
:102F800019103F4B3FA244A10090012007F05CFDC7
:102F9000241D00BF05F4807018B1207803F01AF8E2
:102FA000641C05F4007018B1207802F005FE641C62
:102FB00005F4803000B1641C05F4002098B121783C
:102FC000002003F049F96178012003F045F934A0AD
:102FD00040F243112A4B2BA2CDE900102EA1042070
:102FE00007F032FDA41C05F4801018B1207803F01E
:102FF00079F9641C05F4001018B1207802F0D2FFB2
:10300000641C05F4800018B1207802F0EBFF641C0A
:1030100005F4000018B1207803F0CCF9641C0B48CB
:10302000083002F0B9FB70B123A040F26711144BD5
:1030300014A2CDE9001018A1012007F005FD012020
:1030400005B0BDE8F0834846FAE700007C020020A6
:103050000C000020636F756E743A2564202D2D3EA0
:103060002073706565642073657420737563636590
:103070007373204C3D2564202C20523D25640000B4
:103080004E1C01082E2E5C4150505C7372635C68CC
:103090006F73742E63000000686F7374000000008B
:1030A0006E656275696C7A6572206861732062650D
:1030B0002073657400000000717565756520697383
:1030C00020656D7074792021212100002DE9FC41DB
:1030D00000260025FAA040F21B41FA4BFAA2CDE9E6
:1030E0000010FEA1042007F0AFFCFE48B0F8BE318E
:1030F00000F5E1722021FCA007F0B2FBF948B0F81E
:103100005203002876D10024E9E0F648B0F8BE0169
:10311000001B072819DAF34BB3F8BE311A1BF54B25
:103120001919F04BB3F8527303F55573F818FDF7FE
:1031300095F8EC48B0F85203EA49B1F8BE11091B02
:103140000844E849A1F85203CFE0EA48005DBB28F3
:1031500008D0E848005DCC2804D0E648005DDD28B2
:1031600000D0BAE0E348611C405C00B1B5E0E14842
:10317000005DBB283FD1DF49A21C8818FFF744FB44
:103180000546D848B0F8BE01011BE81D814219DA96
:10319000D44BB3F8BE311A1BD64B1919D14BB3F827
:1031A000527303F55573F818FDF758F8CD48B0F889
:1031B0005203CC49B1F8BE11091B0844C949A1F812
:1031C000520392E0A31D5F19CA4BDA5DAB1DD9B261
:1031D000C84B1819FFF734FE00B17EE0E81DC2B2FB
:1031E000C4480119A0F5DD7002F0B0FCA01D284410
:1031F00084B271E07AE0BF48005DCC2834D1B94890
:10320000B0F8BE01001B0B2819DAB64BB3F8BE317B
:103210001A1BB84B1919B34BB3F8527303F5557316
:10322000F818FDF71BF8AF48B0F85203AD49B1F8F4
:10323000BE11091B0844AB49A1F8520355E0AD4942
:1032400004F10A03CA5C08190A21FFF7F9FD00B16D
:1032500043E0A84801190B22A0F5DD7002F076FCCE
:1032600004F10A0084B237E0A248005DDD2833D1C2
:103270009C48B0F8BE01001B0B2819DA994BB3F833
:10328000BE311A1B9B4B1919964BB3F8527303F5B9
:103290005573F818FCF7E2FF9248B0F852039149D1
:1032A000B1F8BE11091B08448E49A1F852031CE075
:1032B000904904F10A03CA5C08190A21FFF7C0FD0E
:1032C00000B10AE08B4801190B22A0F5DD7002F075
:1032D0003DFC04F10A0084B200BF601C84B2814846
:1032E000B0F8BE01A0423FF710AFE8E07D49B1F869
:1032F000BE21B1F8523301F5557158187D49FCF7DC
:10330000ADFF7848B0F852037649B1F8BE110844D1
:103310007449A1F852030024CAE07248B0F852037D
:10332000001B07280FDA6F48B0F85203021B7248DF
:103330000119FCF793FF6B48B0F85203001B694971
:10334000A1F85203BAE06C48005DBB2808D06A4877
:10335000005DCC2804D06848005DDD2800D0A5E0E1
:103360006548611C405C00B1A0E06348005DBB287B
:1033700034D16149A21C8818FFF746FA054659481E
:10338000B0F85203011BE81D81420FDA5548B0F82E
:103390005203021B58480119FCF760FF5148B0F86E
:1033A0005203001B4F49A1F8520387E0A31D5F1988
:1033B000514BDA5DAB1DD9B24F4B1819FFF740FDE9
:1033C00000B173E0E81DC2B24B480119A0F553707B
:1033D00002F0BCFBA01D284484B25CE04648005DBE
:1033E000CC282AD13F48B0F85203001B0B280FDA33
:1033F0003C48B0F85203021B3F480119FCF72EFF6E
:103400003848B0F85203001B3649A1F8520355E082
:10341000394904F10A03CA5C08190A21FFF710FDB3
:1034200000B143E0344801190B22A0F5537002F0BB
:103430008DFB04F10A0084B22DE02F48005DDD28E9
:1034400029D12848B0F85203001B0B280FDA254871
:10345000B0F85203021B28480119FCF7FFFE21486F
:10346000B0F85203001B1F49A1F8520326E022497D
:1034700004F10A03CA5C08190A21FFF7E1FC00B154
:1034800014E01D4801190B22A0F5537002F05EFBF9
:1034900004F10A0084B21348B0F85203401EA0425F
:1034A00003D100200F49A1F8520300BF601C84B271
:1034B0000C48B0F85203A0423FF72FAF00BF1DE009
:1034C00000000000A41C01082E2E5C4150505C73CB
:1034D00072635C686F73742E63000000686F7374AE
:1034E000000000007C020020686F73745F726563E7
:1034F000650000003E040020D00500203046BDE8F5
:10350000FC8100002DE9FF5F0024A046A1460020B9
:103510000390BE48D0F8B001BC49D1F8B41100EA1C
:103520000106BB4DAA20287000206870300EA870DC
:10353000300CE870300A28716E71A41D06F004008A
:1035400068B1002706E03846FFF792FAE11968549F
:10355000781CC7B2032FF6DBE01C84B200BF06F074
:10356000100020B1FFF7A4F92855601C84B206F0C2
:10357000200020B1FFF796F92855601C84B206F0B0
:10358000400000283BD0FFF70BFA8246FFF728FAED
:103590000290CAF307202855601C05F800A0029885
:1035A000C0F30721A01C29540298C1B2E01C295481
:1035B000FFF7B2FA8346FFF7A9FAABEB00006421EC
:1035C00000FB01F7002F0ADA92A040F252319B4B28
:1035D0009BA2CDE900109FA1042007F035FA390E17
:1035E000201D2954C7F30741601D2954C7F3072143
:1035F000A01D2954E01D2F54401C84B200BF06F0CA
:10360000800078B10020FFF791F9039003982855C6
:10361000601C84B20120FFF789F9039003982855B4
:10362000601C84B206F4807020B1FFF79BF9285526
:10363000601C84B206F4007020B1FFF719FB285516
:10364000601C84B206F4806020B1FFF7D7F82855DB
:10365000601C84B206F4006068B1002706E03846BA
:10366000FFF72CF9E1196854781CC7B2042FF6DB78
:10367000201D84B200BF06F4005020B1FFF730FADD
:103680002855601C84B206F4004068B1002005E0B3
:103690007249095C2218A954411CC8B20C28F7DBF6
:1036A00004F10C018CB200BF06F4003048B10020D8
:1036B00028550121601C29540021A01C2954E01C1C
:1036C00084B206F4802080B30020FFF72BFA000AB2
:1036D00028550020FFF726FAC1B2601C29540120AA
:1036E000FFF720FA010AA01C29540120FFF71AFA5B
:1036F000C1B2E01C29540220FFF714FA010A201D70
:1037000029540220FFF70EFAC1B2601D295403208C
:10371000FFF708FA010AA01D29540320FFF702FA57
:10372000C1B2E01D2954401C84B206F4002068B1E7
:10373000002706E03846FFF75DF9E1196854781C68
:10374000C7B2022FF6DBA01C84B200BF06F48010C3
:1037500020B1FFF787F92855601C84B206F40010E9
:1037600020B1FFF799F82855601C84B206F4800058
:1037700020B1FFF7FDF82855601C84B206F0004028
:1037800050B337480068000E285535480068C0F32C
:103790000741601C295432480088C0F30721A01C4F
:1037A00029542F480178E01C29542D484068000E08
:1037B000211D68542A484068C0F30741601D295400
:1037C00027488088C0F30721A01D29542448017987
:1037D000E01D2954401C84B24FF0000808E015F8A1
:1037E0000800484400F0FF0908F101001FFA80F8C2
:1037F000A045F4DB05F80490601C84B20348A0F8EF
:10380000C041002004B0BDE8F09F00007C02002011
:10381000060500207370656564207374616D702007
:103820006572726F722C20766C617565206C6573A1
:1038300073207468616E207A65726F00911C0108B4
:103840002E2E5C4150505C7372635C686F73742EF3
:1038500063000000686F737400000000280A0020F5
:103860000000002010B5E6B0002427E01C4890F8C6
:10387000AC0100EB80011A48083010F82100BB2889
:1038800004D0CC2806D0DD280BD107E0FFF7ECFAF6
:10389000044612E000F0FEFA04460EE000F042F8A2
:1038A0000BE001240FA0DE21164B17A2CDE900107A
:1038B0001AA1012007F0C8F800BF00BF4FF4CB7277
:1038C000074918316846FCF7C9FC054808300FC89D
:1038D00002F0E2F90028C9D0204666B010BD000011
:1038E0007C02002038303039206465636F646520C5
:1038F0007461736B207175657565206572726F7286
:1039000000000000371C01082E2E5C4150505C73F3
:1039100072635C686F73742E63000000686F737469
:10392000000000007CB50026FE4890F8AC0100EBDA
:103930008001FC48083000EB810080780106F948DE
:1039400090F8AC0100EB8002F648083000EB8200F2
:10395000C07841EA0041F34890F8AC0100EB8002E6
:10396000F048083000EB8200007941EA0020ED4980
:1039700091F8AC1101EB8102EA49083101EB8201B7
:10398000497940EA0104E74890F8AC0100EB800176
:10399000E448083000EB810080790106E14890F8A6
:1039A000AC0100EB8002DF48083000EB8200C079F8
:1039B00041EA0041DB4890F8AC0100EB8002D948B5
:1039C000083000EB8200007A41EA0020D54991F8E6
:1039D000AC1101EB8102D349083101EB8201497A34
:1039E00040EA010504F0010098B105F0010040B182
:1039F000CC48D0F8B40140F00100CA49C1F8B40184
:103A000007E0C848D0F8B40120F00100C549C1F86A
:103A1000B40104F0040098B105F0040040B1C148BD
:103A2000D0F8B40140F00400BE49C1F8B40107E089
:103A3000BC48D0F8B40120F00400BA49C1F8B40180
:103A400004F0100098B105F0100040B1B548D0F86E
:103A5000B40140F01000B349C1F8B40107E0B14827
:103A6000D0F8B40120F01000AE49C1F8B40104F060
:103A7000200098B105F0200040B1AA48D0F8B40168
:103A800040F02000A749C1F8B40107E0A548D0F8EC
:103A9000B40120F02000A349C1F8B40104F04000B3
:103AA000002835D005F04000C8B19E48D0F8B401D8
:103AB00040F040009B49C1F8B401012002F07AFBBC
:103AC000012002F0DFFA98A040F27D219C4B9DA2DC
:103AD000CDE90010A0A1042006F0B6FF18E091483F
:103AE000D0F8B40120F040008E49C1F8B4010020A4
:103AF00002F060FB002002F0C5FA99A04FF421719A
:103B00008F4B90A2CDE9001093A1042006F09CFFFA
:103B100004F0800098B105F0800040B18148D0F8F1
:103B2000B40140F080007F49C1F8B40107E07D484E
:103B3000D0F8B40120F080007A49C1F8B40104F44F
:103B4000807098B105F4807040B17648D0F8B40127
:103B500040F480707349C1F8B40107E07148D0F8AF
:103B6000B40120F480706F49C1F8B40104F400700E
:103B700098B105F4007040B16A48D0F8B40140F43F
:103B800000706849C1F8B40107E06648D0F8B40194
:103B900020F400706349C1F8B40104F4806098B166
:103BA00005F4806040B15F48D0F8B40140F4806013
:103BB0005C49C1F8B40107E05A48D0F8B40120F4D8
:103BC00080605849C1F8B40104F4006098B105F46C
:103BD000006040B15348D0F8B40140F4006051494E
:103BE000C1F8B40107E04F48D0F8B40120F40060F8
:103BF0004C49C1F8B40104F4005098B105F40050E8
:103C000040B14848D0F8B40140F400504549C1F8EB
:103C1000B40107E04348D0F8B40120F40050414912
:103C2000C1F8B40104F4004098B105F4004040B17B
:103C30003C48D0F8B40140F400403A49C1F8B4011E
:103C400007E03848D0F8B40120F400403549C1F805
:103C5000B40104F4803098B105F4803040B13148AB
:103C6000D0F8B40140F480302E49C1F8B40107E027
:103C70002C48D0F8B40120F480302A49C1F8B401AE
:103C800004F4003098B105F4003040B12548D0F874
:103C9000B40140F400302349C1F8B40107E02148E1
:103CA000D0F8B40120F400301E49C1F8B40104F486
:103CB000802098B105F4802040B11A48D0F8B401B2
:103CC00040F480201749C1F8B40107E01548D0F846
:103CD000B40120F480201349C1F8B40104F4002099
:103CE00098B105F4002040B10E48D0F8B40140F47A
:103CF00000200C49C1F8B40107E00A48D0F8B4012B
:103D000020F400200749C1F8B40104F4801098B3EE
:103D100005F4801088B30348D0F8B40140F4801053
:103D200000492BE07C0200206D6F746F72206F7071
:103D3000656E207375636365737320212121000014
:103D4000791C01082E2E5C4150505C7372635C68D4
:103D50006F73742E63000000686F737400000000BE
:103D60006D6F746F7220636C6F736520737563631E
:103D700065737320212121000BE002E0C1F8B4013A
:103D800007E03D48D0F8B40120F480103A49C1F86A
:103D9000B40104F4001098B105F4001040B13648A5
:103DA000D0F8B40140F400103349C1F8B40107E081
:103DB0003148D0F8B40120F400102F49C1F8B40103
:103DC00004F4800098B105F4800040B12A48D0F88E
:103DD000B40140F480002849C1F8B40107E0264846
:103DE000D0F8B40120F480002349C1F8B40104F4F0
:103DF000000098B105F4000040B11F48D0F8B401AC
:103E000040F400001C49C1F8B40107E01A48D0F89A
:103E1000B40120F400001849C1F8B40104F00040D6
:103E200098B105F0004040B11348D0F8B40140F01B
:103E300000401149C1F8B40107E00F48D0F8B401BF
:103E400020F000400C49C1F8B4010B48083001F0E3
:103E5000A3FC70B109A040F205310D4BAFF21C126A
:103E6000CDE90010AFF21011042006F0EDFD0120A5
:103E70007CBD3046FCE700007C0200207075657553
:103E80006520697320656D707479202121210000FF
:103E9000791C01087CB50026F94890F8AC0100EBCC
:103EA0008001F748083000EB810080780106F44873
:103EB00090F8AC0100EB8002F148083000EB820082
:103EC000C07841EA0041EE4890F8AC0100EB800276
:103ED000EB48083000EB8200007941EA0020E84915
:103EE00091F8AC1101EB8102E549083101EB820147
:103EF000497940EA0104E24890F8AC0100EB800106
:103F0000DF48083000EB810080790106DC4890F83A
:103F1000AC0100EB8002DA48083000EB8200C07987
:103F200041EA0041D64890F8AC0100EB8002D44849
:103F3000083000EB8200007A41EA0020D04991F875
:103F4000AC1101EB8102CE49083101EB8201497AC3
:103F500040EA010504F0010098B105F0010040B10C
:103F6000C748D0F8B00140F00100C549C1F8B00120
:103F700007E0C348D0F8B00120F00100C049C1F803
:103F8000B00104F0040098B105F0040040B1BC4851
:103F9000D0F8B00140F00400B949C1F8B00107E021
:103FA000B748D0F8B00120F00400B549C1F8B0011D
:103FB00004F0100098B105F0100040B1B048D0F8FE
:103FC000B00140F01000AE49C1F8B00107E0AC48C4
:103FD000D0F8B00120F01000A949C1F8B00104F0F8
:103FE000200098B105F0200040B1A548D0F8B001FC
:103FF00040F02000A249C1F8B00107E0A048D0F885
:10400000B00120F020009E49C1F8B00104F040004A
:1040100098B105F0400040B19948D0F8B00140F0A7
:1040200040009749C1F8B00107E09548D0F8B001C9
:1040300020F040009249C1F8B00104F0800098B12E
:1040400005F0800040B18E48D0F8B00140F080000B
:104050008B49C1F8B00107E08948D0F8B00120F0E1
:1040600080008749C1F8B00104F4807098B105F46C
:10407000807040B18248D0F8B00140F4807080492F
:10408000C1F8B00107E07E48D0F8B00120F480709C
:104090007B49C1F8B00104F4007098B105F40070D8
:1040A00040B17748D0F8B00140F400707449C1F8CD
:1040B000B00107E07248D0F8B00120F400707049F8
:1040C000C1F8B00104F4806098B105F4806040B19B
:1040D0006B48D0F8B00140F480606949C1F8B00184
:1040E00007E06748D0F8B00120F480606449C1F867
:1040F000B00104F4006098B105F4006040B160487C
:10410000D0F8B00140F400605D49C1F8B00107E0AB
:104110005B48D0F8B00120F400605949C1F8B00103
:1041200004F4005098B105F4005040B15448D0F860
:10413000B00140F400505249C1F8B00107E05048C6
:10414000D0F8B00120F400504D49C1F8B00104F49A
:10415000004098B105F4004040B14948D0F8B001A2
:1041600040F400404649C1F8B00107E04448D0F8A7
:10417000B00120F400404249C1F8B00104F480309D
:1041800098B105F4803040B13D48D0F8B00140F41A
:1041900080303B49C1F8B00107E03948D0F8B001A0
:1041A00020F480303649C1F8B00104F4003098B1F1
:1041B00005F4003040B13248D0F8B00140F400308E
:1041C0002F49C1F8B00107E02D48D0F8B00120F424
:1041D00000302B49C1F8B00104F4802098B105F4F7
:1041E000802040B12648D0F8B00140F48020244916
:1041F000C1F8B00107E02248D0F8B00120F48020D7
:104200001F49C1F8B00104F4002098B105F4002062
:1042100040B11B48D0F8B00140F400201849C1F863
:10422000B00107E01648D0F8B00120F4002014498E
:10423000C1F8B00104F4801098B105F4801040B1C9
:104240000F48D0F8B00140F480100D49C1F8B0011A
:1042500007E00B48D0F8B00120F480100849C1F8FD
:10426000B00104F40010A8B105F4001050B10448E6
:10427000D0F8B00140F400100149C1F8B00109E0E4
:104280007C0200203048D0F8B00120F400102E4904
:10429000C1F8B00104F4800098B105F4800040B189
:1042A0002948D0F8B00140F480002749C1F8B00196
:1042B00007E02548D0F8B00120F480002249C1F879
:1042C000B00104F4000098B105F4000040B11E48AC
:1042D000D0F8B00140F400001B49C1F8B00107E07C
:1042E0001948D0F8B00120F400001749C1F8B00116
:1042F00004F0004098B105F0004040B11248D0F8F9
:10430000B00140F000401049C1F8B00107E00E488C
:10431000D0F8B00120F000400B49C1F8B0010A48C4
:10432000083001F039FA60B108A04FF40B710C4B62
:104330000CA2CDE9001010A1012006F085FB0120A0
:104340007CBD3046FCE700007C020020717565757D
:104350006520697320656D7074792021212100002A
:10436000621C01082E2E5C4150505C7372635C68C5
:104370006F73742E63000000686F73740000000098
:1043800010B51048C06DC0F1C8000F49A1F8BC01BC
:104390000846B0F8BC210D4900F5E170FBF75EFF5F
:1043A0000948B0F8BC010849A1F8BE01C820054978
:1043B000C865012103485830FDF7EAF8002420467B
:1043C00010BD0000000002407C0200206C120020A2
:1043D00010B500241748B0F8C00120B11548B0F856
:1043E000C001C82801DD012010BD00BF1248FDF743
:1043F00007FA0028FAD10F48B0F8C001C82801DD3B
:10440000C82002E00B48B0F8C00102460B490C4836
:10441000FBF724FF00210848FDF7BAF80548B0F87B
:10442000C00105494439886401210348FDF7B0F80B
:104430000020D9E77C02002044000240060500204D
:10444000341300202DE9F04104460027B846042526
:104450000026FDF78DFC3420FDF704FC0A48FDF72B
:1044600007FC0546042D09D121460748FDF74AFC03
:1044700005480068A04202D0012600E00126FDF7B1
:1044800037FC3046BDE8F0810028000810B5002454
:104490004948008820F001004749088046482430F8
:1044A000048800204449243108804348008840F0B3
:1044B0000100414908804148007800F0010058B9E6
:1044C0003E48007840F001003C49087000203C491B
:1044D00008703C4908706EE03A48007888B940F6A8
:1044E0007460844267DD41F2CC00844263DA0020CC
:1044F00033490870012033490870002032490870A0
:1045000059E02F480078072822DC40F2A46084425A
:104510001EDD40F6FC0084421ADA29480078401C6F
:104520002749087028480078401027490870244817
:10453000007808283FD100202149087021490870DF
:104540001E4908700122204920480AF0ABF932E0E8
:104550001B480078072827DC40F68C20844223DDA6
:1045600040F6E44084421FDA15480078401C1449A4
:104570000870154800784010134908700846007804
:1045800040F0800008700E480078082813D1002001
:104590000B4908700B4908700849087001220A4944
:1045A0000A480AF07FF906E000200649087004492D
:1045B00008700249087010BD000C00404E02002037
:1045C0004C0200204D0200204F02002020930020CA
:1045D0001CB500200A210123084ACDE9001008A1DA
:1045E0000A4809F0E9FF044614B109A009F07AFD70
:1045F00002F040FC00F034FB1CBD0000549300208E
:1046000049524D315F6D717400000000209300200D
:1046100072745F6D715F696E69742849524D315FC4
:104620006D7129206661696C0D0A00001CB50024BB
:1046300014201821C8230022CDE90010054906A046
:104640000BF07EF8044614B120460BF073FA0020FC
:104650001CBD00006146000849524D3100000000B9
:1046600008B50026002755E0781CC7B23223012286
:104670006946294809F0E6FF064656B99DF800103C
:10468000264802780078401C244B18702448815436
:1046900008E00021214802780078401C1F4B187068
:1046A0001F4881541D480078052802DB00201B4963
:1046B00008700025002429E01948005DE12802D196
:1046C00045F0010520E01648005DD22802D145F0F2
:1046D000020519E01248005DC32802D145F0040527
:1046E00012E00F48005DB42802D145F008050BE048
:1046F0000B48005DA52802D145F0100504E00848EC
:10470000005D08B145F02005601CC4B2052CD3DB68
:1047100004480570A8E700002093002055020020FF
:10472000500200207002002010B500244748008885
:1047300020F00100454908800846848C00208884C8
:104740000846008840F0010008804148007800F0E9
:10475000010058B93E48007840F001003C4908701B
:1047600000203C4908703C4908706EE03A480078E7
:1047700088B940F67460844267DD41F2CC0084421F
:1047800063DA0020334908700120334908700020A3
:104790003249087059E02F480078072822DC40F29F
:1047A000A46084421EDD40F6FC0084421ADA2948E7
:1047B0000078401C27490870284800784010274995
:1047C00008702448007808283FD10020214908704B
:1047D000214908701E4908700122204920480AF02A
:1047E00061F832E01B480078072827DC40F68C206F
:1047F000844223DD40F6E44084421FDA1548007805
:10480000401C14490870154800784010134908707E
:104810000846007840F0800008700E4800780828AC
:1048200013D100200B4908700B4908700849087023
:1048300001220A490A480AF035F806E00020064934
:104840000870044908700249087010BD001000404B
:104850005A02002058020020590200205B0200206A
:10486000609300201CB500200A210123084ACDE9ED
:10487000001008A10A4809F09FFE044614B109A0DF
:1048800009F030FC02F014FB00F0F4F91CBD00004C
:104890009493002049524D325F6D71740000000006
:1048A0006093002072745F6D715F696E697428494E
:1048B000524D325F6D7129206661696C0D0A0000EE
:1048C0001CB5002414201921C8230022CDE90010B2
:1048D000054906A00AF034FF044614B120460BF047
:1048E00029F900201CBD0000F548000849524D324E
:1048F0000000000008B5002658E0701CC6B2322344
:10490000012269462A4809F09DFE2A4908600846A6
:10491000006850B99DF80010274802780078401CC4
:10492000254B18702548815408E000212248027860
:104930000078401C204B1870204881541E48007895
:10494000052802DB00201C4908700025002429E00E
:104950001A48005DE12802D145F0010520E0174822
:10496000005DD22802D145F0020519E01348005D30
:10497000C32802D145F0040512E01048005DB428B8
:1049800002D145F008050BE00C48005DA52802D1D6
:1049900045F0100504E00948005D08B145F0200528
:1049A000601CC4B2052CD3DB05484570A5E70000A8
:1049B000609300205C02002065020020600200205D
:1049C0007002002010B500244948008820F0010042
:1049D000474908804648243004880020444924314F
:1049E00008804348008840F0010041490880414860
:1049F000007800F0010058B93E48007840F001000E
:104A00003C49087000203C4908703C4908706EE041
:104A10003A48007888B940F67460844267DD41F214
:104A2000CC00844263DA0020334908700120334906
:104A3000087000203249087059E02F480078072894
:104A400022DC40F2A46084421EDD40F6FC00844279
:104A50001ADA29480078401C27490870284800784D
:104A60004010274908702448007808283FD10020CA
:104A700021490870214908701E4908700122204907
:104A8000204809F00FFF32E01B480078072827DC98
:104A900040F68C20844223DD40F6E44084421FDA55
:104AA00015480078401C14490870154800784010DB
:104AB000134908700846007840F0800008700E48DE
:104AC0000078082813D100200B4908700B490870A2
:104AD0000849087001220A490A4809F0E3FE06E085
:104AE000002006490870044908700249087010BD8A
:104AF00000140040680200206602002067020020C7
:104B000069020020A09300201CB500200A21012387
:104B1000084ACDE9001008A10A4809F04DFD0446F5
:104B200014B109A009F0DEFA02F0E0F900F0ACF8E7
:104B30001CBD0000D493002049524D335F6D717449
:104B400000000000A093002072745F6D715F696EB9
:104B500069742849524D335F6D7129206661696C13
:104B60000D0A00001CB5002414201A21C8230022BD
:104B7000CDE90010054906A00AF0E2FD044614B193
:104B800020460AF0D7FF00201CBD0000994B00080A
:104B900049524D330000000008B50026002755E0BB
:104BA000781CC7B2322301226946294809F04AFD20
:104BB000064656B99DF80010264802780078401C39
:104BC000244B18702448815408E0002121480278C1
:104BD0000078401C1F4B18701F4881541D480078F6
:104BE000052802DB00201B4908700025002429E06D
:104BF0001948005DE12802D145F0010520E0164882
:104C0000005DD22802D145F0020519E01248005D8E
:104C1000C32802D145F0040512E00F48005DB42816
:104C200002D145F008050BE00B48005DA52802D134
:104C300045F0100504E00848005D08B145F0200586
:104C4000601CC4B2052CD3DB04488570A8E70000C3
:104C5000A09300206F0200206A0200207002002052
:104C600010B501F0C6F8FDF74FFCFCF705FF00F0AA
:104C7000AEFA10BD10B501F0C6F8FDF753FCFCF715
:104C80000FFF00F0B4FA10BD10B501F0C6F8FDF743
:104C900057FCFCF719FF00F0BAFA10BD4AF6AA203B
:104CA00001490860704700000030004010B504461C
:104CB00000210120FEF772F800210220FEF76EF8B5
:104CC00001200AF097FE01210348FCF798F9012022
:104CD0000AF090FE10BD000000240140002180F881
:104CE000A41180F8A511704770B504460026E07B3A
:104CF00000F042F80546607B30B101280AD0022856
:104D000015D0032827D122E01DB1002060600120CA
:104D1000607323E045B16068401C606060680228F1
:104D200004D30220607301E00020607316E01DB917
:104D300001260020607309E06068401C60606068C4
:104D4000B0F5967F02D30A260320607306E00DB902
:104D50000020607302E00020607300BF00BF304697
:104D600070BD0022027001220273C17300224273DF
:104D7000827342608260704710B5044624B90121F5
:104D80000648FDF7DFFC10BD012C04D1E102044808
:104D9000FDF7D8FCF7E70020F5E700000008014028
:104DA000001001407FB50446204600F02DF805466E
:104DB0006DB12570E07B06A15A220C4BCDE90205AE
:104DC000CDE900210AA20FA1042005F03DFE7FBD20
:104DD0006B6579206E756D3D25642C6B657920734C
:104DE00074617465203D2025640D0A00741E01085D
:104DF0002E2E5C4150505C7372635C6B65792E6340
:104E0000000000006B65790070B50446002620465E
:104E1000FFF76AFF0546A07B20B101280BD00228CE
:104E20002AD119E0012D04D10020A0600120A07337
:104E300000E02E4623E0012D04D10020A0600220D6
:104E4000A07308E0A068401CA060A068462802D3B8
:104E500001260020A07312E0012D03D103260020BB
:104E6000A07308E0A068401CA060A068462802D398
:104E700002260020A07302E00020A07300BF00BF44
:104E8000304670BD00200149087070477400002052
:104E900010B54348007808287ED2DFE800F00413FC
:104EA0002231404F5E6D4FF480713E48FDF755FC56
:104EB00080213C48FDF751FC4FF400713948FDF763
:104EC0004CFC6AE04FF480713648FDF744FC8021C9
:104ED0003448FDF742FC4FF400713248FDF73DFCC9
:104EE0005BE04FF480712F48FDF735FC80212D48A1
:104EF000FDF731FC4FF400712A48FDF72EFC4CE021
:104F00004FF480712748FDF726FC80212548FDF7E6
:104F100024FC4FF400712348FDF71DFC3DE04FF4E5
:104F200080712048FDF719FC80211E48FDF713FC15
:104F30004FF400711B48FDF710FC2EE04FF4807118
:104F40001848FDF70AFC80211648FDF704FC4FF4D1
:104F500000711448FDF7FFFB1FE04FF4807111480A
:104F6000FDF7FBFB80210F48FDF7F7FB4FF40071C5
:104F70000C48FDF7F0FB10E04FF480710948FDF795
:104F8000EAFB80210748FDF7E6FB4FF40071054876
:104F9000FDF7E1FB01E0FFE700BF00BF10BD00002F
:104FA0007400002000100140002001490870704783
:104FB000A400002010B50748007828B94FF480718C
:104FC0000548FDF7C8FB04E04FF480710248FDF787
:104FD000C4FB10BDA40000200008014000BFFEE794
:104FE00070B504460D4614B94FF0FF3070BD15B9C9
:104FF0004FF0FF30FAE795F83D00012807D1800215
:105000001D490860698F000502F064FB12E095F904
:105010003D00401C48B94FF480601749091D0860E5
:10502000698F000502F056FB04E000214FF080403C
:1050300002F050FB94F83D00012807D140030F49CE
:105040000860618F400402F047FB12E094F93D00D4
:10505000401C48B94FF400500849091F0860618F8F
:10506000400402F039FB04E000214FF0804002F0E0
:1050700033FB0020BAE7000010180140140C014077
:1050800010B5044600202087012084F83D00002050
:105090006087012084F83C00204600F067FB002177
:1050A0006186218600206062A1623420015510BD16
:1050B0000248406A401C0149486270475809002074
:1050C00070B505460C4695F83C0048B14FF4805049
:1050D00014490860298E284600F080FA688707E0A6
:1050E0004FF480500F49091D08600020A88268878E
:1050F00094F83C0048B14FF400600B490860218EE1
:10510000204600F06BFA608707E04FF40060064924
:10511000091D08600020A082608721462846FFF70D
:105120005FFF70BD100C0140101801400248406E36
:10513000401C0149486670475809002010B50448D2
:10514000002101604160FDF74BFE002010BD000012
:1051500000000020704708B526208DF800000220CE
:105160008DF801008DF8020001208DF803006846DB
:1051700000F08EF825208DF8000001208DF8010048
:1051800000208DF8020001208DF80300684600F031
:105190007FF819208DF8000000208DF801008DF8AF
:1051A000020001208DF80300684600F071F81E200F
:1051B0008DF8000002208DF8010000208DF802001B
:1051C00001208DF80300684600F062F808BD08B5BC
:1051D0000A208DF8000000208DF801008DF80200F3
:1051E00001208DF80300684600F052F808BD08B5AC
:1051F00009208DF8000000208DF801008DF80200D4
:1052000001208DF80300684600F042F808BD08B59B
:1052100008208DF8000000208DF801008DF80200B4
:1052200001208DF80300684600F032F808BD08B58B
:1052300032208DF8000002208DF801008DF8020068
:1052400001208DF80300684600F022F808BD08B57B
:1052500036208DF8000002208DF801008DF8020044
:1052600001208DF80300684600F012F808BD08B56B
:1052700037208DF8000002208DF801008DF8020023
:1052800001208DF80300684600F002F808BD000018
:1052900070B5002100230F22C47804B3154C246894
:1052A00004F4E064C4F5E064210AC1F10403CA40D7
:1052B000447804FA03F184781440214309010E4C28
:1052C0000678A155047804F01F050124AC40057848
:1052D0006D11AD0005F1E025C5F8004109E0047845
:1052E00004F01F050124AC40044D0678761145F802
:1052F000264070BD0CED00E000E400E080E100E03D
:1053000002490143024A1160704700000000FA059B
:105310000CED00E0024A0A400243024B1A6070475B
:1053200080FFFF1F08ED00E00648006800F4E06021
:1053300005490843001D03490860BFF3408F00BFC3
:10534000FEE700000CED00E00000FA050020024935
:105350000870487070470000AD0000201CB52A4856
:1053600000782A490978884223D02748007820B15C
:10537000012806D0FF2817D108E040202449086002
:1053800012E040202249091F08600DE0402020491A
:10539000086020A02A21264B26A2CDE900102BA1CF
:1053A000012005F051FB00BF00BF174800781749E6
:1053B00008701548407827490978884223D0124858
:1053C000407820B1012806D0FF2817D108E020201E
:1053D0000F49086012E020200D49091F08600DE008
:1053E00020200B4908601CA03F21114B11A2CDE9E0
:1053F000001016A1012005F027FB00BF00BF0248E6
:105400004078144908701CBDAD000020AF0000209A
:10541000140C01406E656275696C7A657231207397
:1054200074617465206572726F7220212121000001
:10543000711F01082E2E5C4150505C7372635C6ECC
:10544000656275696C7A65722E6300004E4F5F5419
:1054500041470000B00000206E656275696C7A6596
:105460007232207374617465206572726F722021CC
:10547000212100000020014908707047AB00002086
:105480001CB51548007815490978884223D0124880
:10549000007820B1012806D0FF2817D108E010209D
:1054A0000F49086012E010200D49091F08600DE047
:1054B00010200B4908600BA02721104B10A2CDE94A
:1054C000001014A1012005F0BFFA00BF00BF024880
:1054D0000078024908701CBDAB000020AC00002021
:1054E000140C01406F7A6F6E6520737461746520CF
:1054F0006572726F7220212121000000641F010873
:105500002E2E5C4150505C7372635C6F7A6F6E65D7
:105510002E6300004E4F5F544147000008B5012143
:10552000042000F013FC0121042000F00FFC4FF4D4
:105530000040ADF8000010208DF8030003208DF826
:10554000020069461848FDF729F84FF40060ADF8ED
:10555000000010208DF8030003208DF8020069463A
:105560001148FDF71BF810480C30006840F400406B
:105570000D490C3108604FF4FA7004F035FF0A4809
:105580000C30006820F4006007490C3108604FF4CB
:10559000FA7004F029FF04480C30006840F4006001
:1055A00001490C31086008BD0008014010B50A48E7
:1055B000006820F40040084908604FF4FA7004F0D5
:1055C00013FF0548006840F40040034908604FF4A9
:1055D000FA7004F009FF10BD0C0801402DE9F04FEE
:1055E00093B004460E46A08A00287DDB3046FBF7C8
:1055F000C4F81290A08AFBF7C0F88246584950467A
:10560000FBF70EF901D2DFF858A150461299FAF7CC
:105610001CFF054652492846FAF74FFF0546284623
:10562000E169FAF712FF07462168FAF714FF81468D
:1056300029466068FAF70FFF07464946FAF7B3FEB6
:105640008146206AFBF7B2F8CDE90601E069FBF775
:10565000ADF8074600224FF08043FBF713F8CDE981
:1056600002012846FBF7A2F8CDE90001DDE902239B
:10567000FBF702F8CDE90401DDE90623FAF75BFF49
:10568000CDE90A01A068FBF791F8CDE90801DDE951
:105690000A23FAF7F7FFCDE90E014846FBF786F833
:1056A000CDE90C01DDE90E23FAF745FFCDE9100144
:1056B000FBF78FF881462B494846FAF7CCFE814626
:1056C000E08AFBF75AF807464946FAF76CFE81462E
:1056D000208BFBF752F883465146FAF7B9FE804615
:1056E000E168FAF7B8FE00E033E007464946FAF70A
:1056F0005AFE8146208B78B900215046FBF790F87E
:1057000005D219494846FAF74EFE814604E016498B
:105710004846FAF79AFE814600214846FBF776F89C
:1057200001D24FF000090F494846FBF779F801D242
:10573000DFF830904846FBF725F8E082E069206208
:10574000E5615046FBF71EF82083E08A13B0BDE800
:10575000F08F0020E0822062E061E08AF6E700003E
:105760000080A24400E0C7440000FA430021818287
:105770000749016007494160054981604FF07F5149
:10578000C1600021C1610162C18201610183704772
:105790000AD7A33C8FC2753D10B5ADF5507D0446C8
:1057A0004FF4CB7204F110016846FAF757FD4FF43D
:1057B000D372214666A8FAF751FD66A80FC800F01B
:1057C0006BFA18B101200DF5507D10BD94F8A401BD
:1057D000401C152190FBF1F201FB120084F8A4019A
:1057E0000020F0E710B58CB004460E2204F1100141
:1057F0006846FAF733FD1E22214604A8FAF72EFD6B
:1058000004A80FC803F004F810B101200CB010BDBB
:10581000E07E401C152190FBF1F201FB1200E076C6
:105820000020F3E710B520210148FCF794FF10BDDC
:10583000001801407CB5044600250026654901207A
:10584000FCF78EFF48B164A053216C4B6CA2CDE9EC
:10585000001070A1012005F0F7F85E4800886F493C
:105860006F4A127821F812006D480078092836D165
:105870000A216A48FBF759FE0026012505E0674822
:1058800030F815000644681CC5B2092DF7DBF00896
:10589000504908600846006840F6AA2148430013B2
:1058A0006049086008460068A0F6AC0064214843DF
:1058B0004FF4967190FBF1F05A4908600846006871
:1058C000642802DD6420086006E05648006800286D
:1058D00002DA0020534908605248007860703D4960
:1058E0000020FCF73DFF48B14FA07221434B44A27A
:1058F000CDE9001047A1012005F0A6F83548006861
:1059000040F6B831884204DD207840F00100207074
:1059100003E0207820F001002070FDF7EFF828B9AF
:105920004B480078401C4A49087004E04948007818
:10593000401C48490870FDF7D9F828B94648007856
:10594000401C4549087004E044480078401C434925
:10595000087043480078092826D13D4800783D4921
:105960000978884204DB207840F00200207003E0D0
:10597000207820F0020020703748007837490978F5
:10598000884204DB207840F00400207003E0207897
:1059900020F00400207000202D4908702D49087067
:1059A0002D4908702D4908702D480078401C0A21A7
:1059B00090FBF1F201FB12002949087018480078A9
:1059C000401C0A2190FBF1F201FB120014490870FF
:1059D0007CBD00001C000020676574206261747447
:1059E00065727920766F6C746167652061646320ED
:1059F00076616C7565206661696C2E00371E010842
:105A00002E2E5C4150505C7372635C706F776572D0
:105A10002E630000706F776572000000B8060020EA
:105A200025000020200000206765742063686172F3
:105A300067696E6720766F6C746167652061646367
:105A40002076616C7565206661696C2E000000002F
:105A50002600002027000020280000202900002028
:105A60002400002010B580210148FCF776FE10BD0F
:105A7000000C014010B508210148FCF76EFE10BD76
:105A80000014014010B508210148FCF766FE10BD66
:105A9000000801407047704710B540210148FCF7ED
:105AA0005CFE10BD00180140F0B58FB00020FCF77F
:105AB00005FF04460120FCF701FF05460220FCF724
:105AC000FDFE06460320FCF7F9FE07461548408A0E
:105AD0001449098A134AD289124B9B89CDE90B32AA
