:020000040800F2
:10000000900B002009020008850E0008B10C0008C2
:10001000810E00086D070008A7120008000000000C
:100020000000000000000000000000003110000887
:100030007107000800000000190F00081D110008DA
:1000400023020008230200082302000823020008FC
:1000500023020008230200082302000823020008EC
:1000600023020008230200082302000823020008DC
:1000700023020008230200082302000823020008CC
:1000800023020008230200082302000823020008BC
:1000900023020008230200082302000823020008AC
:1000A000230200088111000823020008230200082F
:1000B000230200082302000823020008230200088C
:1000C000230200082302000823020008230200087C
:1000D0002302000823020008851100088711000888
:1000E000F108000823020008230200082302000888
:1000F000230200082302000823020008230200084C
:10010000230200082302000823020008230200083B
:1001100083110008230200082302000823020008BC
:10012000230200082302000823020008230200081B
:1001300000F002F800F048F80AA090E8000C8244B1
:100140008344AAF10107DA4501D100F03DF8AFF28E
:10015000090EBAE80F0013F0010F18BFFB1A43F0A5
:10016000010318474816000068160000103A24BF23
:1001700078C878C1FAD8520724BF30C830C144BF0C
:1001800004680C607047000000230024002500264E
:10019000103A28BF78C1FBD8520728BF30C148BFEA
:1001A0000B607047782900F09180002070471FB5E0
:1001B00000F084FA04000020002101F0CDFA401C78
:1001C00060601FBD10B510BD00F053FA1146FFF777
:1001D000EEFF01F099FA00F083FA03B4FFF7F2FFA3
:1001E00003BC01F05FFA0000EFF30980704780F371
:1001F00009887047EFF30880704780F308887047DC
:1002000040BA7047C0BA704709488047094800475C
:10021000FEE7FEE7FEE7FEE7FEE7FEE7FEE7FEE7B6
:10022000FEE7FEE704480549054A064B7047000013
:10023000211100083101000890050020900B0020DA
:100240009007002090070020704700000FB4044979
:1002500010B503AA029800F019F910BC5DF814FB60
:10026000180000202DE9F0410E46044600202062CF
:100270002046E168884730B3252805D0D4E901211C
:100280009047206A401CF2E7E16820460027884733
:10029000050018D0A5F14100192802D820354FF4E7
:1002A00000673246294620462760FFF77BFF40B1B2
:1002B000012804D0F61D26F007060836D8E7361DBB
:1002C000D6E72846DAE7206ABDE8F08170B5044633
:1002D0000D4621461068AFF300802188090502D53C
:1002E0000F4A7A4402E00E4A7A440E32002104F1A9
:1002F000240305E000F00F060009965D5E54491CDA
:100300000028F7D120780023000704D5702D02D0F3
:1003100009B1022311322046BDE8704000F05CB8FC
:100320009E14000070B5064600F052F804680546B9
:1003300030460A22002100F0BBF82C6070BD032A71
:1003400040F2308010F0030C00F0158011F8013BF2
:10035000BCF1020F624498BF11F801CB00F8013BD9
:1003600038BF11F8013BA2F1040298BF00F801CB9D
:1003700038BF00F8013B11F0030300F0D180083AC8
:10038000C0F0088051F8043B083A51F804CBA0E8CB
:100390000810F5E7121D5CBF51F8043B40F8043B20
:1003A000AFF30080D20724BF11F8013B11F801CB55
:1003B00048BF11F8012B24BF00F8013B00F801CB26
:1003C00048BF00F8012B704770477047704770476F
:1003D00000487047300500202DE9F0470D4699464A
:1003E0009246044600F124080168880604D5E069B5
:1003F00021F01001216000E00120A84201DD471B2F
:1004000000E00027A1697A1902EB0900081AA0612F
:100410002078C00602D42046AFF30080002608E012
:10042000D4E901211AF806009047206A401C761C86
:1004300020624E45F4DB2078C0060AD52046AFF393
:10044000008006E0D4E9012130209047206A401C5A
:100450002062381EA7F10107F4DC07E0D4E901218E
:1004600018F805009047206A401C2062281EA5F15C
:100470000105F3DC2046AFF300802078000602D5AA
:100480000220BDE8F0870120FBE70000074B70B5B4
:100490000D467B4400F087F80446284600F0E5F856
:1004A00010B14FF0FF3070BD204670BD4F120000FC
:1004B0002DE9F04791460F4680460446002614F881
:1004C000015B2DB100F062F80068405DC007F6D115
:1004D0002B2D02D02D2D18D0641E4A4639462046B9
:1004E00000F074F827B13968A14201D1C7F8008043
:1004F0004FF0020471050BD54042002803DDFFF7E1
:1005000067FF0460A007BDE8F08746F48066E4E773
:100510000028F8DAFFF75CFF04606FF00040F2E7B4
:1005200010B5203AC0F00B80B1E81850203AA0E88E
:100530001850B1E81850A0E81850BFF4F5AF5FEAC2
:10054000027C24BFB1E81850A0E8185044BF18C975
:1005500018C0BDE810405FEA827C24BF51F8043B1C
:1005600040F8043B08BF7047D20728BF31F8023B70
:1005700048BF11F8012B28BF20F8023B48BF00F804
:10058000012B7047004870473005002010B500F07F
:1005900095F8001D10BD00BFC111000001694A1C83
:1005A00002610878704700B58FB0CDE901310021B4
:1005B000059105497944CDE9031011466846FFF7D6
:1005C00051FE0FB000BD0000E5FFFFFF2DE9F05F19
:1005D000824615468B4600270AF10104B946007889
:1005E000302801D09DB113E014F8010B01277828C1
:1005F00003D0582801D045B10AE00DB1102D07D124
:10060000002714F8010B102502E0082500E00A2558
:100610000026B0460EE005FB080005FB06F10127A9
:100620001FFA80F801EB1046B6F5803F00D3B946BB
:1006300014F8010B294600F045F80028EBDABBF16D
:10064000000F05D00FB1641E00E05446CBF8004007
:10065000B9F1000F06D0FFF7BBFE02210160C81EF2
:10066000BDE8F09F48EA0640FAE7007B00F0800012
:1006700070477546FFF786FFAE460500694653464C
:1006800020F00700854618B020B5FFF7CBFDBDE888
:1006900020404FF000064FF000074FF000084FF0E9
:1006A000000B21F00701AC46ACE8C009ACE8C0097A
:1006B000ACE8C009ACE8C0098D46704700487047F7
:1006C000500500203A2800D2303820F02002412A7C
:1006D00001D3A2F13700884201D34FF0FF307047B9
:1006E0000446AFF300802046FFF777FD4FF0013C52
:1006F00050F8042B51F8043B9A4221D1A2EB0C0391
:10070000934313EACC1317D150F8042B51F8043B50
:100710009A4215D1A2EB0C03934313EACC130BD1ED
:1007200050F8042B51F8043B9A4209D1A2EB0C0378
:10073000934313EACC13DBD04FF00000704700BFA7
:10074000D01A01BAB1FA81F101F0180122FA01F0D0
:10075000CB40C1F12001DBB2C0B2C01A2CFA01F3C8
:10076000D11A914311EAC311E6D1704700BFFEE7E9
:100770007047000000B585B00121480400F0CEFBB1
:100780000121212000F0DAFB0121082000F048FAC5
:100790002020ADF8100003208DF8120018208DF8ED
:1007A000130004A9124800F0B0F94020ADF8100081
:1007B00048208DF8130004A90D4800F0A6F94FF465
:1007C000E13000900020ADF80400ADF80600ADF86F
:1007D0000800ADF80C000C20ADF80A006946054889
:1007E00000F0ECFC0121034800F0CEFC05B000BD98
:1007F000001401400044004070B50025002600248C
:10080000184800F099FD0546002D27DD16A0FFF7DA
:100810001DFD601E00F010FB0646DEB918A0FFF7B4
:1008200015FD00BF05E04FF47A7000F03DFF601C3D
:10083000C4B20A2CF7DB00BF1B48006800F4E0607C
:100840001A490843001D18490860BFF3408F00BFD4
:1008500000BFFEE716A0FFF7F9FC02E01EA0FFF7BD
:10086000F5FC70BD30010020446F776E6C6F6164E1
:100870004669726D77617265206F6B0D0A0000002A
:100880004941505F57726974654D6F6465466C618C
:100890006728464C41475F4150505F4D4F444529C2
:1008A000206F6B0D0A0000000CED00E00000FA055F
:1008B0004941505F57726974654D6F6465466C615C
:1008C0006728464C41475F4150505F4D4F44452992
:1008D000206661696C0D0A00446F776E6C6F61640D
:1008E0004669726D77617265206661696C0D0A00F8
:1008F000704700000149C8607047000000200240B6
:1009000030B5A525042400F08FF800B100254FF480
:10091000302000F0E7F80446042C3AD11E481F4965
:1009200088601F4888600846006940F02000086120
:100930000846006940F0400008614FF4302000F0A4
:10094000D1F80446042C1BD11448006941F6DF712C
:100950000840124908610846006940F0100008612B
:1009600010480580E00200F0BDF80446052C10D0C8
:100970000A48006941F6EF7108400849086108E03B
:10098000052C06D00548006941F6EF71084003497F
:100990000861204630BD0000230167450020024069
:1009A000AB89EFCD00F8FF1F30B5044604254FF4A6
:1009B000302000F097F80546042D17D10C48006947
:1009C00040F002000A49086108464461006940F0AD
:1009D000400008614FF4302000F084F805460448D8
:1009E000006941F6FD71084001490861284630BDA3
:1009F0000020024004200B49C96801F0010109B13F
:100A000001200EE00749C96801F0040109B1022084
:100A100007E00449C96801F0100109B1032000E0B2
:100A2000042070470020024000200449C96901F0F9
:100A3000020109B1012000E00020704700200240BF
:100A40000148006A70470000002002400348006926
:100A500040F080000149086170470000002002401A
:100A600078B506460C46042500200090E80200F008
:100A700039F80546042D24D11348006940F00100DF
:100A8000114908613480E80200F02CF80546042D75
:100A900010D1B01C0090200C00990880E80200F0F2
:100AA00021F805460848006941F6FE7108400649EC
:100AB000086106E00448006941F6FE7108400249F9
:100AC0000861284678BD0000002002400248034922
:100AD0004860034848607047230167450020024092
:100AE000AB89EFCD00B502460423FFF783FF034631
:100AF00003E0FFF77FFF0346521E012B01D1002ABE
:100B0000F7D102B90523184600BD2DE9F041024690
:100B100000250026002000230024002791F803C0B0
:100B20000CF00F0591F803C00CF0100CBCF1000F95
:100B300003D091F802C04CEA050591F800C0BCF161
:100B4000000F31D0146800202BE04FF0010C0CFA9C
:100B500000F3B1F800C00CEA03069E4220D18300E6
:100B60004FF00F0C0CFA03F7BC4305FA03FC4CEAF8
:100B7000040491F803C0BCF1280F06D14FF0010C1A
:100B80000CFA00FCC2F814C00AE091F803C0BCF1F2
:100B9000480F05D14FF0010C0CFA00FCC2F810C050
:100BA000401C0828D1D31460B1F800C0BCF1FF0F7D
:100BB00034DD546800202EE000F1080C4FF00108ED
:100BC00008FA0CF3B1F800C00CEA03069E4221D1EA
:100BD00083004FF00F0C0CFA03F7BC4305FA03FC3B
:100BE0004CEA040491F803C0BCF1280F05D100F1D0
:100BF000080C08FA0CF8C2F8148091F803C0BCF194
:100C0000480F07D100F1080C4FF0010808FA0CF862
:100C1000C2F81080401C0828CED35460BDE8F08193
:100C2000F0B50A46002300240021002500F000460C
:100C3000B6F1004F02D11D4EF16901E01B4E716803
:100C4000C0F3034583B200F44016B6F5401F08D147
:100C500021F07061154E766826F07066134F7E6045
:100C600012E000F48016B6F5801F06D1032606FABE
:100C700005F4A14341F0706106E0460D360103FA28
:100C800006F6B14341F0706122B1460D360103FA18
:100C900006F6314300F00046B6F1004F02D1034E94
:100CA000F16101E0014E7160F0BD00000000014003
:100CB00000BFFEE770B50025002403250120A840F1
:100CC000401EC443FFF7BCFE2040A04201D0FFF706
:100CD00017FE70BD2DE9F0410446002500270426CB
:100CE000A846C4F30A0020B1012000EBD42087B24B
:100CF00001E0C4F3CF27FFF7E9FE3420FFF7FAFD48
:100D000000250CE00B4901EBC520FFF74DFE064620
:100D1000042E02D04FF0010805E0681C85B2BD42E8
:100D200001DA042EEED000BFFFF790FE4046BDE88A
:100D3000F08100000030000800B585B00121880373
:100D400000F0FCF80121052000F0F8F84FF40070E5
:100D5000ADF8100003208DF8120018208DF8130054
:100D600004A91348FFF7D1FE4FF48060ADF81000DE
:100D700048208DF8130004A90D48FFF7C6FE4FF474
:100D8000E13000900020ADF80400ADF80600ADF8A9
:100D90000800ADF80C000C20ADF80A0069460548C3
:100DA00000F00CFA0121034800F0EEF905B000BD97
:100DB000000801400038014010B508484068084963
:100DC0000860084600680749086004490868FFF79A
:100DD00014FA04480068804710BD00000030000885
:100DE000080000200400002001480068704700004F
:100DF000002800082DE9F04105460C461646FFF78D
:100E000065FE3420FFF776FD00270EE028462168B6
:100E1000FFF726FE28682168884203D04FF0FF3094
:100E2000BDE8F0812D1D241D3F1DB742EED3FFF715
:100E30000DFE0020F4E700002DE9F04104460027F4
:100E4000B84604250026FFF741FE3420FFF752FD87
:100E50000A48FFF7A9FD0546042D09D12146074898
:100E6000FFF7FEFD05480068A04202D0012600E021
:100E70000126FFF7EBFD3046BDE8F08100280008B1
:100E800000BFFEE77047000008B50121042000F014
:100E900055F80121042000F051F84FF40040ADF85E
:100EA000000010208DF8030003208DF80200694631
:100EB0001848FFF72AFE4FF40060ADF8000010203C
:100EC0008DF8030003208DF8020069461148FFF7F2
:100ED0001CFE10480C30006840F400400D490C31F5
:100EE00008604FF4FA7000F0DFFB0A480C3000682D
:100EF00020F4006007490C3108604FF4FA7000F0EC
:100F0000D3FB04480C30006840F4006001490C3108
:100F1000086008BD000801407047000029B1064A7A
:100F2000D2690243044BDA6104E0034AD269824386
:100F3000014BDA61704700000010024029B1064AF7
:100F400092690243044B9A6104E0034A9269824326
:100F5000014B9A61704700000010024030B500213B
:100F60000022002400232D4D6D6805F00C0121B1F5
:100F7000042905D0082923D105E0294D056022E088
:100F8000274D05601FE0254D6D6805F47012234D57
:100F90006D6805F48034022505EB92421CB9214DA1
:100FA000554305600BE01D4D6D6805F400351DB11E
:100FB0001C4D5543056002E0194D5543056002E0A4
:100FC000174D056000BF00BF144D6D6805F0F001BE
:100FD0000909154D6B5C0568DD4045600F4D6D6876
:100FE00005F4E061090A104D6B5C4568DD408560E1
:100FF0000A4D6D6805F46051C90A0B4D6B5C45687C
:10100000DD40C560054D6D6805F44041890B074D15
:101010006B5CC568B5FBF3F5056130BD001002409F
:1010200000127A0000093D001C0000202C00002066
:10103000704710B500F002F810BD00000CB500209C
:10104000019000903348006840F4803031490860D6
:1010500000BF3048006800F4003000900198401C48
:101060000190009818B90198B0F5A06FF1D1294806
:10107000006800F4003010B10120009001E0002071
:1010800000900098012843D12348006840F01000E8
:10109000214908600846006820F0030008600846FF
:1010A000006840F0020008601A484068194948602A
:1010B0000846406848600846406840F480604860E0
:1010C0000846406820F47C1048600846406840F4B8
:1010D000E81048600846006840F08070086000BF73
:1010E0000C48006800F000700028F9D009484068FA
:1010F00020F00300074948600846406840F00200BD
:10110000486000BF0348406800F00C000828F9D18F
:101110000CBD00000010024000200240704700009B
:1011200010B51348006840F00100114908600846F6
:101130004068104908400E494860084600680E495A
:1011400008400B4908600846006820F480200860C9
:101150000846406820F4FE0048604FF41F00886095
:10116000FFF767FF4FF000600449086010BD000002
:10117000001002400000FFF8FFFFF6FE08ED00E05F
:10118000704770477047704721B1828942F400521E
:10119000828104E082894DF6FF731A408281704794
:1011A00002460020B1F5007F00D100BF13880B403C
:1011B0000BB1012000E00020704700002DE9F0474E
:1011C00086B005460E460024A24600BFA146002771
:1011D000B08900B100BF2F462C8A4CF6FF70044046
:1011E000F08804432C82AC894EF6F3100440B0889A
:1011F00031890843718908430443AC81AC8A4FF6B6
:10120000FF400440B0890443AC8201A8FFF7A6FE6A
:101210001F48874202D1DDF810A001E0DDF80CA0E4
:10122000A88900F4004040B10AEBCA0000EB0A10A4
:1012300031684900B0FBF1F807E00AEBCA0000EBA7
:101240000A1031688900B0FBF1F86420B8FBF0F0B7
:1012500004012009642101FB1089A88900F40040E1
:1012600040B1322000EBC900B0FBF1F000F0070004
:10127000044308E0322000EB09106421B0FBF1F0D8
:1012800000F00F0004432C8106B0BDE8F087000099
:101290000038014001468888C0F308007047C1F358
:1012A00008028280704700BFFEE7000001464FF051
:1012B000E020006920F004004FF0E0221061C1F34B
:1012C000C700084A10701046007800EB4002C2EBDD
:1012D000C0104FF6FF7202EAC000034A10800020DF
:1012E00070470000120000201400002070B5024674
:1012F0000B46002000211CE0565C3402002514E05F
:1013000080EA040636B2002E05DA41F2210686EAAA
:101310004006B0B203E04FF6FF7606EA40004FF613
:10132000FF7606EA44046E1CB5B2082DE8DB4E1CBD
:10133000B1B29942E0DB70BD2DE9F04FADF22C4D1A
:101340000646002700200190834600250090804635
:1013500004908146029000BF002700200390B2460F
:1013600000BF4FF4801201A909A800F013F910B1D1
:10137000012872D1B1E04FF000090198B0F1FF3FB0
:1013800001D028BB07E0062000F07CF900200DF218
:101390002C4DBDE8F08FB8F1000F07D108F1010026
:1013A00000F0FF08152000F06DF910E0B8F1010F12
:1013B00008D1062000F066F9432000F063F901200F
:1013C000039004E0062000F05DF90120039082E024
:1013D0009DF82500F9B2884203D0152000F052F99B
:1013E00078E0002F4ED19DF82700002843D000253B
:1013F0000DF1270405E014F8012B28466D1C4E4919
:101400000A54207808B1FF2DF5D9002228466D1C1A
:1014100049490A540025641C05E014F8012B2846AC
:101420006D1C05A90A542078202801D0102DF4D372
:10143000002228466D1C05A90A5405A8FEF772FF74
:101440008346BBF5802F09DB182000F01BF918201C
:1014500000F018F94FF0FF3099E747E05846FFF7E2
:1014600039FC364836490860062000F00BF9432065
:1014700000F008F92BE0062000F004F901200390A9
:10148000049028E00DF127015046019AFEF757FF1E
:1014900000962B48DDE900120068FFF7ABFC68B14D
:1014A000182000F0EFF8182000F0ECF8244801684C
:1014B00024A0FEF7CBFE6FF0010068E7204800682B
:1014C000019908441E490860062000F0DBF87F1CE3
:1014D0000120029000BF00BF1EE0182000F0D2F8EB
:1014E000182000F0CFF86FF0020050E702980028B3
:1014F00003DD09F1010000F0FF09B9F10A0F07DD72
:10150000182000F0BFF8182000F0BCF800203EE7DB
:10151000432000F0B7F800BF00BF039800283FF455
:1015200020AF00BF00BF049800283FF415AF00BFF4
:1015300000BF58462BE700003000002000300008B4
:10154000000000204941505F557064617461507221
:101550006F6772616D28257829206661696C0D0AB4
:101560000000000070B504460D460AE0202108483E
:10157000FFF716FE28B10648FFF78CFE207000200A
:1015800070BD2800A5F10105F0D1401EF8E700006C
:10159000003801402DE9F84304460E4690460020ED
:1015A000306041466846FFF7DDFF18B14FF0FF306D
:1015B000BDE8F8839DF80000182813D006DC012848
:1015C00009D0022809D0042820D109E041281AD0E6
:1015D00061281BD118E080251BE04FF4806518E0DE
:1015E0000020E5E741466846FFF7BCFF40B99DF89B
:1015F0000000182804D14FF0FF3030600020D7E7FA
:101600004FF0FF30D4E700BF0120D1E74FF0FF30AB
:10161000CEE700BF9DF800002070012709E0E01927
:101620004146FFF79FFF10B14FF0FF30C0E7781C35
:1016300087B2681D8742F2DB6178A07880F0FF00F6
:10164000814202D04FF0FF30B2E72946E01CFFF79D
:101650004DFE0A490880281D215CE81C205C01EB36
:10166000002007490880054800880988884202D080
:101670004FF0FF309CE73560002099E70E00002016
:101680001000002010B5044621460548FFF707FE6C
:1016900000BF80210248FFF783FD0028F9D010BD6C
:1016A0000038014000BF704701B50D4A128800990B
:1016B00051434FF0E02251610021916101211161FC
:1016C00000BF4FF0E021086900F0010119B100F4FA
:1016D00080310029F5D000214FF0E022116108BDD2
:1016E0001400002070B504460D46A1B20548FFF76E
:1016F000D6FD00BF80210348FFF752FD0028F9D036
:10170000204670BD004400400024FFF76DFB0446F6
:101710000B48844201D0FFF74FFB4820FFF7C6FD7E
:10172000FFF728F8FFF7B0FBFFF706FBFFF7C2FA59
:1017300004A0FEF78BFD01E0FFF75EF8FCE7000078
:1017400078563412626F6F746C6F61646572206DCD
:101750006F64650D0A00000010B500290AD00878F2
:10176000002807D005487844FEF7C0FF002801D0C4
:10177000002010BD0248784410BD00006600000043
:101780005E0000003031323334353637383941426B
:1017900043444546403058003031323334353637D3
:1017A000383961626364656640307800DC1800088F
:1017B00000000020300000006C0100080C19000837
:1017C00030000020600B00008801000810010000BC
:1017D00043000000F8FFFFFF004040404040404011
:1017E00040404141414141404040404040404040F4
:1017F0004040404040404040400502020202020298
:1018000002020202020202020220202020202020E6
:1018100020202002020202020202909090909090FA
:1018200010101010101010101010101010101010B8
:10183000101010100202020202028888888888882C
:101840000808080808080808080808080808080818
:101850000808080802020202400000000000000020
:101860000000000000000000000000000000000078
:101870000000000000000000000000000000000068
:101880000000000000000000000000000000000058
:101890000000000000000000000000000000000048
:1018A0000000000000000000000000000000000038
:1018B0000000000000000000000000000000000028
:1018C0000000000000000000000000000000000018
:1018D00000000000000000000000000000300008D0
:1018E00000000000000000000000000000000000F8
:1018F00000000000000000000000000001020304DE
:0C1900000102030406070809020406089F
:10300000F077002045310008518200080F32000897
:10301000D98000089D450008ADB7000800000000F9
:103020000000000000000000000000001D910008EA
:103030009D4800080000000097310008619B0008CF
:103040005F3100085F3100085F3100085F31000820
:103050005F3100085F3100085F3100085F31000810
:10306000A9490008BF490008D54900085F31000898
:103070005F3100085F3100085F3100085F310008F0
:103080005F3100085F3100085F3100085F310008E0
:103090005F3100085F3100085F3100085F310008D0
:1030A0005F310008E59E00085F3100085F310008CD
:1030B0005F3100085F310008B99F00085F310008E8
:1030C0005F3100085F3100085F3100085F310008A0
:1030D0005F310008B1AF000825B000085F3100087B
:1030E000794900085F3100085F3100085F3100084E
:1030F0005F3100085F3100085F3100085F31000870
:103100005F3100085F310008C19F00085F3100088F
:103110005F3100085F310008FD9F000839A00008FA
:103120005F3100085F3100085F3100085F3100083F
:10313000DFF80CD000F052FD00480047393D000890
:10314000F07700200648804706480047FEE7FEE784
:10315000FEE7FEE7FEE7FEE7FEE7FEE7FEE7FEE747
:10316000159C000831310008EFF3108072B67047EB
:1031700080F310887047334A1368012B04D04FF056
:1031800001031360304A1060304A116030484FF03C
:10319000805101607047EFF3108272B629480168D0
:1031A00091B14FF0000101602748016829B1EFF3A8
:1031B000098121E9F00F0068016024490968096864
:1031C000B1E8F00F81F3098882F310884EF0040E05
:1031D00070471E4908601C494FF0000008601949FB
:1031E0004FF0010008601B484FF47F01D0F8002029
:1031F00041EA0201016016484FF080510160164813
:103200000068006880F3088861B662B670471EF0F7
:10321000040F0CBFEFF30880EFF3098020E9F00FF3
:1032200040F804ED1EF0040F0CBF80F3088880F313
:10323000098800B50DF062FE5DF804EB4EF0040E57
:10324000704700003C0100203401002038010020BC
:1032500004ED00E020ED00E008ED00E010B5431AB9
:10326000934209D28318881803E010F8011D03F86F
:10327000011D521EF9D210BD40EA01039B0703D085
:1032800009E008C9121F08C0042AFAD203E011F8A5
:10329000013B00F8013B521EF9D210BDD2B201E051
:1032A00000F8012B491EFBD270470022F6E710B54B
:1032B00013460A4604461946FFF7F0FF204610BDA4
:1032C000421E12F8013F002BFBD111F8013B02F81E
:1032D000013B002BF9D1704730B505462A460B4615
:1032E00012F8010B13F8014B08B1A042F8D01CB141
:1032F000002802D06D1CF1E7284630BD10B5044609
:1033000004E00B7800F8013B03B1491C521EF8D2CF
:10331000204610BD421C10F8011B0029FBD1801A69
:10332000704730B504460020034600E05B1C934222
:1033300003D2E05CCD5C401BF8D030BD034611F8F1
:10334000012B00F8012B002AF9D11846704730B53F
:1033500005460020034600E05B1C934205D2EC5C6E
:10336000C85C201A01D1002CF6D130BD0246C9B28A
:1033700000E0401C0378002BFBD102E003788B4275
:1033800003D0401E9042F9D20020704770B5064627
:1033900008F058FB046805460A220021304600F078
:1033A000B1FA2C6070BDF0B480EA0102D40F420083
:1033B000B2EB410F02D20246084611464A0042D003
:1033C000C30DDDB2C1F3C752AD1A202D35DAC1F3FA
:1033D000160141F4000204B15242C5F1200602FA7E
:1033E00006F12A411044B3EBD05F23D0C4B1012DC4
:1033F000A0EBC35009DCF0BC4FF0004202EAC3521C
:10340000DBB200F5000000F0BEBA400000F18070B1
:1034100000EBC350A0F1807040EAD170490009E090
:10342000490841EAC071A0EBC35000F50000400814
:1034300000EBC350F0BC00F09DBA6142012202EBE8
:103440004101001BF6E7F0BC704781F00041AAE79C
:1034500080F00040A7E780EA010210B502F00043C7
:10346000400022D04A001FD0010E01EB1261C0F3D0
:103470005600C2F3560240F4000042F40002A0FBE2
:10348000022000047F39140400D0401C50EA12408E
:1034900001D44000491EC2B20C0604EBD010401CFF
:1034A0004008802A02D003E0002010BD20F0010077
:1034B000002900DA0020184310BD30B480EA010270
:1034C00002F0004530F0004221F0004013D090B1EE
:1034D000C30DD40DC2F31601C0F31600E41A41F473
:1034E000000140F400027D34914201D3641C00E0ED
:1034F0004900002C02DA30BC002070474FF4000075
:103500000023914201D3891A034340084FEA410145
:10351000F7D151B1914202D14FF0004105E002D202
:103520004FF0010101E06FF0010103EBC4502844AA
:1035300030BC00F01FBA2DE9FE4F804681EA03003F
:10354000C00F0C46009021F0004123F00045B8EB7D
:103550000200A94105D24046214690461C460B4632
:10356000024623F00040104347D0270DC7F30A005E
:10357000C3F30A510290401A019040286BDAC3F35A
:10358000130040F4801B0098924620B10023D2EB38
:10359000030A63EB0B0B01985946C0F140025046F9
:1035A00000F08FF906460D4650465946019A00F044
:1035B00097F910EB08006141002487EA115284EA70
:1035C000E7731A4340D0009A62B3019A012A4FEA86
:1035D000075215DC001B61EB02014FF0004202EACA
:1035E0000752CDE90042001C41F5801132462B46BE
:1035F00000F006FA03B0BDE8F08F40462146F9E737
:10360000001B61EB0201001C41F5801300185B41B7
:103610002018A2F5001747EB030140EAD570B61950
:103620006D4111E06D084FEA360645EAC0754FEA74
:103630000752001B61EB0201001C41F58011490893
:103640004FEA30000019514132462B4603B0BDE825
:10365000F04F00F0C6B90098012240000023D0EBE3
:10366000020263EBE073009821464FEAE074B8EB86
:10367000000061EB0401E9E783F000435BE781F0C0
:10368000004158E72DE9FE4F81EA030404F00044AD
:1036900021F0004100944FF0000B23F0004350EA6A
:1036A00001045ED052EA03045BD0C3F30A54C1F3B1
:1036B0000A552C44A4F2F3340194A0FB0254C1F344
:1036C000130141F48011C3F3130343F4801301FB8E
:1036D000024400FB034E840A970A44EA815447EAF5
:1036E0008357A4FB076802958D0A05FB07854FEAFF
:1036F000932C04FB0C542705029D4FEA065847EA19
:103700001637B5EB08056EEB070C870E920E47EAED
:10371000811742EA8312A7FB0201B6EB0B0164EBAF
:1037200000042B0D43EA0C335E1844EB1C50DA46C0
:103730005146E7FB0201C5F313044FEA0B3343EA9A
:1037400014534FEA0432019C43EA0603A4F10C042B
:103750000294009CCDE900B400F052F903B0BDE83A
:10376000F08F00200146F9E7C10F80EAE0700844BD
:10377000CA079623002100F006B9962300221146BD
:1037800000F001B920F00040C10DC0F3160040F474
:1037900000007F2901DA00207047962903DCC1F17F
:1037A0009601C840704796398840704700F0004243
:1037B00030F000400AD0C10D01F56071C0F3160071
:1037C00042EA0151C20840071143704700200146F8
:1037D000704701F0004330B421F0004150EA01028B
:1037E00006D00A0DA2F56072C1F31301002A02DCB3
:1037F00030BC00207047440F44EAC104C100E01807
:1038000030BC00EBC25000F0B5B80000002801DB6E
:10381000C0F10040002901DBC1F100418142704745
:10382000002801DBC0F10040002901DBC1F10041AB
:103830008842704730B50B46014600202022012403
:1038400009E021FA02F59D4205D303FA02F5491B6E
:1038500004FA02F52844151EA2F10102F1DC30BD84
:103860002DE9F05F0546002092469B4688460646B5
:10387000814640241BE0284641464746224600F048
:10388000BFF953465A46C01A914110D31146184603
:10389000224600F016F82D1A67EB01084F46224623
:1038A0000120002100F00DF817EB00094E41201E09
:1038B000A4F10104DFDC484631462A464346BDE810
:1038C000F09F202A04DB203A00FA02F10020704722
:1038D0009140C2F1200320FA03F31943904070474E
:1038E000202A06DBCB17203A41FA02F043EAE073C4
:1038F00006E041FA02F3D040C2F1200291400843B1
:10390000194670472DE9F04791460F468046044618
:10391000002614F8015B2DB100F082F90068405DCB
:10392000C007F6D12B2D02D02D2D18D0641E4A468B
:103930003946204600F078F927B13968A14201D113
:10394000C7F8008071054FF002040BD540420028F3
:1039500003DD08F077F80460A007BDE8F08746F4BF
:103960008066E4E70028F8DA08F06CF804606FF08D
:103970000040F2E70029A8BF7047401C490008BF7B
:1039800020F00100704710B4B0FA80FC00FA0CF08F
:1039900050EA010404BF10BC704749B1CCF12004C7
:1039A00021FA04F411FA0CF118BF01212143084354
:1039B000A3EB0C01CB1D4FEA00614FEA102042BF80
:1039C000002010BC704700EBC35010440029A4BF76
:1039D00010BC7047401C490008BF20F0010010BC1B
:1039E000704710B5141E73F1000408DA401C41F151
:1039F000000192185B411A4301D120F0010010BD73
:103A00002DE9F04D92469B4611B1B1FA81F202E0E8
:103A1000B0FA80F220329046FFF753FF04460F467B
:103A200040EA0A0041EA0B0153465A46084313D0C4
:103A3000114653EA010019D0C8F14002504600F087
:103A4000DFF805460E46504659464246FFF739FF15
:103A5000084305D0012004E020463946BDE8F08D3A
:103A60000020054346EAE0762C4337430A98630575
:103A7000E40AA0EB08000022FD0A44EA47540A3099
:103A800002D500200146E9E7010510196941DDE989
:103A9000084500196941BDE8F04DA2E72DE9F04D58
:103AA00081EA030404F0004B21F0004514464FF076
:103AB000000A23F0004150EA050220D054EA010236
:103AC0001DD0C5F30A570246C5F31303C1F3130013
:103AD000C1F30A5640F4801543F48013A7EB06089F
:103AE000101BD64608F2FD3873EB050002D308F12F
:103AF000010801E092185B41B8F1000F03DA0020E1
:103B00000146BDE8F08D00204FF480110646844642
:103B10000EE0171B73EB050705D3121B63EB0503C0
:103B200006434CEA010C49084FEA300092185B4109
:103B300050EA0107EDD152EA030012D082EA0400F4
:103B400083EA0501084305D0101BAB4106D20122D0
:103B5000002306E000224FF0004302E06FF0010274
:103B600053101AEB06004CEB085110EB0A0041EB26
:103B70000B01BDE8F04DFFF734BFC1F30A52C1F3AA
:103B8000130140F2FF3341F480119A4202DA00201F
:103B90000146704740F233439A42A2F2334202DCBC
:103BA000524200F02DB8FFF78CBE000030B5041E65
:103BB00071F1000404DB4FF00044404264EB01016A
:103BC000141E73F1000405DB1C464FF00043524203
:103BD00063EB0403994208BF904230BD064C074D89
:103BE00006E0E06840F0010394E8070098471034CD
:103BF000AC42F6D3FFF7A0FA3C6501085C6501080A
:103C0000202A04DB203A21FA02F00021704721FA31
:103C100002F3D040C2F12002914008431946704798
:103C200000487047D05C01082DE9F05F82460078BB
:103C3000002715468B460AF10104B946302801D009
:103C40009DB113E014F8010B0127782803D0582800
:103C500001D045B10AE00DB1102D07D10027102584
:103C600014F8010B02E0082500E00A250026B04602
:103C70000EE005FB080005FB06F1012701EB1046ED
:103C80001FFA80F8B6F5803F00D3B94614F8010B4F
:103C9000294600F018F80028EBDABBF1000F05D038
:103CA0000FB1641E00E05446CBF80040B9F1000F9C
:103CB00006D007F0C7FE02210160C81EBDE8F09FD4
:103CC00048EA0640FAE73A2800D2303820F02002CD
:103CD000412A01D3A2F13700884201D34FF0FF30CF
:103CE000704770B58C1810F8015B15F0070301D10F
:103CF00010F8013B2A1106D110F8012B03E010F84F
:103D0000016B01F8016B5B1EF9D12B0705D4002371
:103D1000521E0DD401F8013BFAE710F8013BCB1A13
:103D2000921C03E013F8015B01F8015B521EF9D508
:103D3000A142D8D3002070BD10B50FF0A7FD002020
:103D400010BD21B1826842F00102826003E0826806
:103D500022F001028260704700B585B0404800F053
:103D60008DF80020009001208DF8040000208DF8CF
:103D700005004FF460200290002003900E208DF883
:103D800010006946364800F0B1F807231A460B21A7
:103D9000334800F0D3F8072306220A21304800F008
:103DA000CDF80723082202212D4800F0C7F8072389
:103DB000092201212A4800F0C1F8072301220C2121
:103DC000274800F0BBF8072302220E21244800F008
:103DD000B5F8072303220621214800F0AFF8072396
:103DE000042205211E4800F0A9F80723052204211A
:103DF0001B4800F0A3F807230A220D21184800F001
:103E00009DF807230B221946154800F097F8072361
:103E10000C220F21124800F091F807230D220921EE
:103E20000F4800F08BF80723092208210C4800F006
:103E300085F801210A4800F015F801210848FFF72C
:103E400080FF074800F0D6F800BF054800F044F8AE
:103E50000028FAD1024800F0DDF805B000BD0000EE
:103E60000024014021B1826842F48072826003E044
:103E7000826822F4807282607047000010B50446A8
:103E80001248844208D10121401505F02DF8002187
:103E9000601505F029F817E00D48844208D101218A
:103EA000001505F021F80021201505F01DF80BE0A4
:103EB0000848844208D10121C80305F015F8002103
:103EC0004FF4004005F010F810BD00000024014040
:103ED00000280140003C0140014600208A6802F0B1
:103EE00008020AB1012000E00020704730B5024608
:103EF0000020002350680F4C20400D790C6844EAE4
:103F000005242043506090680B4C2040D1E90254B6
:103F10002C434D7944EA450420439060D06A20F454
:103F200070000C7C641EE4B2234340EA0350D0626C
:103F300030BD0000FFFEF0FFFDF7F1FFF0B50446D5
:103F40000D4600200021092D11DDE068A5F10A06CB
:103F500006EB4607072606FA07F18843A5F10A068D
:103F600006EB460603FA06F10843E0600CE0206920
:103F700005EB4507072606FA07F1884305EB4506DA
:103F800003FA06F108432061072A0FDA606B561E18
:103F900006EB86071F2606FA07F18843561E06EB36
:103FA000860605FA06F10843606322E00D2A0FDA5F
:103FB000206BD61F06EB86071F2606FA07F18843FB
:103FC000D61F06EB860605FA06F10843206310E0CB
:103FD000E06AA2F10D0606EB86071F2606FA07F136
:103FE0008843A2F10D0606EB860605FA06F10843A2
:103FF000E062F0BD816841F008018160704721B145
:10400000826842F4A002826003E0826822F4A00287
:1040100082607047816841F0040181607047000050
:1040200010B50446022000F005FC00287DD00220D7
:1040300000F0B6FAFD480089FD49FE4A127821F8E1
:1040400012000846FB49097830F81100FA4909685E
:104050000844F9490860F548418BF848F54A127858
:1040600020F81210F349097830F81100F449096872
:104070000844F3490860ED480088F249ED4A127897
:1040800021F812000846EB49097830F81100EE4992
:1040900009680844EC490860E4484188EB48E54A6F
:1040A000127820F81210E349097830F81100E84935
:1040B00009680844E6490860DC488088E549DD4A2B
:1040C000127821F81200D948C088E349D94A1278F9
:1040D00021F81200DF48D749097830F81100DF498C
:1040E00009680844DD490860DB48D249097830F89E
:1040F0001100DB4909680844D9490860CB48408A67
:10410000D849CC4A127821F812000846C9490978E2
:1041100030F81100D44909880844D3490880C348BD
:10412000818AD248C34A127800E0DEE120F81210FA
:10413000C049097830F81100CD4909880844CC49B4
:104140000880BA48C08ACB49BA4A127821F81200CE
:104150000846B849097830F81100C7490988084469
:10416000C5490880B148008BC449B24A127821F889
:1041700012000846AF49097830F81100C049098893
:104180000844BF490880A948008ABE49A94A127854
:1041900021F81200A548C089BB49A64A127821F827
:1041A0001200A2488089B949A24A127821F8120067
:1041B0009E484089B6499F4A127821F812009D49CD
:1041C000087800EBD0714910A0EB410181BBAF48EA
:1041D0009849097830F81100AE4909680844AD499A
:1041E0000860AB489349097830F81100AA4909687A
:1041F0000844A9490860A4488E49097830F811009C
:10420000A64909680844A54908609E488949097873
:1042100030F81100A24909680844A1490860012149
:10422000084601F0EDFD0121022001F0E9FD30E03A
:10423000FFE796487F49097830F8110099490968E5
:1042400008449849086092487A49097830F8110082
:10425000954909680844944908608B48754909786C
:1042600030F8110091490968084490490860854870
:104270007049097830F811008D49096808448C4963
:1042800008600021012001F0BBFD0021022001F0A7
:10429000B7FD68480078401C142190FBF1F201FB47
:1042A0001200644908700846007800287ED16248F0
:1042B00000681421B0FBF1F0208100205E49086005
:1042C0005F4800681421B0FBF1F0608100205C4978
:1042D00008605D4800681421B0FBF1F020800020E8
:1042E000594908605A4800681421B0FBF1F0608019
:1042F000002057490860594800681421B0FBF1F0CC
:10430000A080002055490860554800681421B0FB82
:10431000F1F0E080002052490860534800881421E1
:1043200090FBF1F0A08100204F490880A0891E2851
:1043300006DBA089372803DC0021084605F04AF88F
:104340004B480088142190FBF1F0E081002048499F
:104350000880E0891E2806DBE089372803DC00217D
:10436000012005F037F844480088142190FBF1F053
:10437000208200204049088041480088142190FB99
:10438000F1F0608200203E490880464800684149BB
:104390000968401A40001421B0FBF1F0A082A18A04
:1043A0004FF4A57201FB02F0C11700E092E000EBB0
:1043B00011510913A18200203A490860354908606B
:1043C0003948006834490968401A40001421B0FB9C
:1043D000F1F0E082E18A01FB02F0C11700EB11511C
:1043E0000913E1820020304908602B4908602F48FA
:1043F00000682A490968401A40001421B0FBF1F016
:104400002083218B01FB02F0C11700EB115109132E
:10441000218300202549086020490860244800685D
:104420001F490968401A4000142143E0400A002057
:10443000940700202C00002040000020BC07002032
:1044400044000020F4060020300000201C0700205B
:1044500034000020440700206C07002038000020B2
:104460003C000020E4070020480000200C08002049
:104470004A000020340800204C0000205C08002086
:104480004E000020FC080020D408002084080020F2
:10449000AC080020500000205400002058000020EC
:1044A0005C00002060000020640000206800002004
:1044B0006C000020B0FBF1F06083618B01FB02F027
:1044C000C11700EB115109136183002009490860ED
:1044D0000949086001200EF04BFB01210748FFF756
:1044E0008EFD01200EF044FB02E002200EF040FBA6
:1044F000002010BD6C0000205C0000200024014062
:1045000010B54FF440514FF0006003F081FF4FF4BD
:10451000A06003F073FF04F0F7FC03F09AFE00F0D4
:104520006BFA00F0CDFCFFF717FC06F0B5FC00F0CD
:1045300051F805F09FFD01F067FB03F0C7F803F0A9
:104540000FFA03F05FFB04F0CDFD05F0E1FC04F091
:1045500063F805F0F9F810BD70B50246002400209C
:10456000002318E04D1EA8B211E0451E32F8155088
:1045700032F81060B54208DD451E32F8154032F8B9
:10458000106022F8156022F81040451EA8B298422B
:10459000EBDC5D1CABB28B42E4DB70BD00BFFEE721
:1045A00000F0805111B10349086001E00249486000
:1045B00070470000040402400000024021B102687C
:1045C00042F00102026004E002684FF6FE731A40F6
:1045D0000260704700B58BB0394800F081F8394867
:1045E000009039480190002002900E200390002096
:1045F00004908020059040000690800007902020C5
:1046000008900002099000200A9069462C4800F0AA
:1046100027F901212A48FFF7D1FF2948503000F03F
:104620005FF82A4800902A48019000200290C82094
:1046300003900020049080200590002006900790B1
:1046400008904FF44050099000200A9069461C4899
:10465000503000F005F9012119485030FFF7AEFF46
:1046600017483C3000F03CF8184800901948019079
:104670001020029000200390694611483C3000F061
:10468000EFF801210E483C30FFF798FF0C487830D6
:1046900000F026F810480090104801901020029079
:1046A00000200390099069460548783000F0D8F85A
:1046B000012103487830FFF781FF0BB000BD0000F7
:1046C000080002404C240140400A00200438014008
:1046D0007812002040130020044400407C0A00208F
:1046E00001684FF6FE7211400160002101604160D7
:1046F0008160C1604B49884208D14A4908394968FC
:1047000041F00F01474A083A51608AE045491431A7
:10471000884208D143490839496841F0F001414ACB
:10472000083A51607DE03F492831884208D13D492F
:104730000839496841F470613A4A083A516070E0BA
:1047400038493C31884208D136490839496841F432
:104750007041344A083A516063E03249503188422E
:1047600008D130490839496841F470212D4A083A86
:10477000516056E02B496431884208D129490839F3
:10478000496841F47001274A083A516049E02549D7
:104790007831884208D123490839496841F070616D
:1047A000204A083A51603CE01F49884206D1011F67
:1047B000096841F00F01021F116032E01A491431FB
:1047C000884208D11849091F096841F0F001164ACA
:1047D000121F116025E014492831884208D112497E
:1047E000091F096841F470610F4A121F116018E037
:1047F0000D493C31884208D10B49091F096841F431
:104800007041094A121F11600BE00749503188427C
:1048100007D10549091F096841F47021024A121F96
:1048200011607047080002400804024001464868D1
:1048300080B2704701460020002201F0805313B17E
:10484000054B1A6801E0054B1A6802EA01030BB137
:10485000012000E0002070470004024000000240F8
:1048600010B50022026847F6F0739A430C6A8B6811
:1048700023430C6923434C6923438C692343CC694C
:1048800023434C6A23438C6A23431A430260CB6858
:1048900043600B6883604B68C36010BD704770B5A0
:1048A00005460C46152C01DD012070BD01F012FA01
:1048B00060B92146284604F01FFF012004F022FFC2
:1048C0000021284604F01BFF0020EEE70120ECE762
:1048D0000146C878012801D00120704708780128D6
:1048E00001D00120F9E7487898B9887828B90120E3
:1048F0001F4A106088700020EFE78878012808D1EF
:104900001B4A121D10600020887001204870002092
:10491000E3E78888002819DD888800EBD072521000
:10492000A0EB420212B90220114A1060888800EB05
:10493000D0725210A0EB4202012A03D102200C4A8D
:10494000121D10608888401E88800FE009480068AA
:10495000401C084A10601046006847F230529042EE
:1049600004D30020034A1060087088800020B4E758
:10497000101401407000002010B54FF4805000F07A
:10498000CDF828B14FF4805000F030F803F04CFC23
:104990004FF4004000F0C2F828B14FF4004000F09E
:1049A00025F803F003FC10BD10B5042000F0B6F8A4
:1049B00020B103F085F8042000F018F810BD10B500
:1049C000082000F0ABF820B102F02CFF082000F026
:1049D0000DF810BD10B5102000F0A0F820B102F0C5
:1049E000D3FD102000F002F810BD0000014908605E
:1049F00070470000140401401FB50121402004F05D
:104A000063FA0121084604F05FFA4FF40040ADF864
:104A10000C0048208DF80F0003A9214800F0F0FD9C
:104A20004FF48050ADF80C0048208DF80F0003A91A
:104A30001B4800F0E5FD0F21042000F0C1FD4FF4FC
:104A40000040019000208DF8080010208DF809002A
:104A500001208DF80A0001A800F074F80C21042050
:104A600000F0AEFD4FF48050019000208DF808005A
:104A700010208DF8090001208DF80A0001A800F02F
:104A800061F828208DF8000000208DF801008DF8D5
:104A9000020001208DF80300684603F077FC1FBD7B
:104AA000001801401CB50421084600F089FD1020C3
:104AB000009000208DF804000C208DF805000120E6
:104AC0008DF80600684600F03DF81CBD1CB50321BA
:104AD000042000F075FD0820009000208DF80400EF
:104AE0000C208DF8050001208DF80600684600F0C6
:104AF00029F81CBD1CB50221042000F061FD042032
:104B0000009000208DF804000C208DF80500012095
:104B10008DF80600684600F015F81CBD014600201F
:104B20000022074B1B6803EA0102054B14331B6884
:104B30000B4013B10AB1012000E0002070470000D3
:104B400000040140002123498279002A3AD00A4614
:104B5000126803689A430B461A600A1D12680368BC
:104B60009A430B1D1A60027911440A6803681A43BC
:104B70000A60184A0832126803689A43154B0833D2
:104B80001A601A1D126803689A43124B0C331A609C
:104B90004279102A0ED11A1F126803681A430D4B6E
:104BA00008331A601A1D126803681A43094B0C3344
:104BB0001A600DE00749427911440A6803681A43F4
:104BC0000A6005E0027911440A6803689A430A60A2
:104BD0007047000000040140002001490870704740
:104BE000B40000201CB515480078154909788842A2
:104BF00023D01248007820B1012806D0FF2817D111
:104C000008E010200F49086012E010200D49091F2C
:104C100008600DE010200B4908600BA02A21124B00
:104C200012A2CDE9001018A1012008F0CBFF00BFAF
:104C300000BF02480078024908701CBDB400002083
:104C4000B500002014140140656C656374726F6CCC
:104C500079736973207374617465206572726F7201
:104C60002021212100000000CC5001082E2E5C41A3
:104C700050505C7372635C656C656374726F6C79C1
:104C80007369732E630000004E4F5F54414700006C
:104C90000149C860704700000020024030B504465A
:104CA00004254FF4302000F085F80546042D17D177
:104CB0000C48006940F002000A4908610846446156
:104CC000006940F0400008614FF4302000F072F8B5
:104CD00005460448006941F6FD7108400149086134
:104CE000284630BD0020024004200B49C96801F06D
:104CF000010109B101200EE00749C96801F0040172
:104D000009B1022007E00449C96801F0100109B1A6
:104D1000032000E00420704700200240034800699F
:104D200040F0800001490861704700000020024007
:104D300078B506460C46042500200090E80200F0F5
:104D400039F80546042D24D11348006940F00100CC
:104D5000114908613480E80200F02CF80546042D62
:104D600010D1B01C0090200C00990880E80200F0DF
:104D700021F805460848006941F6FE7108400649D9
:104D8000086106E00448006941F6FE7108400249E6
:104D90000861284678BD000000200240024803490F
:104DA000486003484860704723016745002002407F
:104DB000AB89EFCD00B502460423FFF795FF03460C
:104DC00003E0FFF791FF0346521E012B01D1002A99
:104DD000F7D102B90523184600BD000000200249A2
:104DE0000870487070470000A80000202D48006837
:104DF00028B12C480068401E2A49086022E02A4851
:104E000000782A49097888421CD02748007830B1B8
:104E100001280BD002280ED0FF280ED10CE008206C
:104E20002349086064201F49086006E008202049E3
:104E3000091F086001E000E000BF00BF1A480078C9
:104E40001A4908701B48006828B11A480068401EBB
:104E50001849086024E014484078174909788842C6
:104E60001ED01148407830B101280CD0022810D053
:104E7000FF2810D10EE04FF4005010490860642064
:104E80000C49086007E04FF400500C49091F086006
:104E900001E000E000BF00BF034840780649087009
:104EA00070470000AC000020A8000020AA000020ED
:104EB000140C0140B0000020AB0000201418014089
:104EC00008B50121FE4800F027FC0820ADF80000DD
:104ED00010208DF8030003208DF802006946F94880
:104EE00000F08EFB03F08CFE0820ADF800001020CF
:104EF0008DF8030003208DF802006946F24800F0A7
:104F00007FFB03F075FE8020ADF8000010208DF8C7
:104F1000030003208DF802006946EC4800F070FBA6
:104F200003F05EFE4020ADF8000010208DF8030075
:104F300003208DF802006946E54800F061FB03F0AC
:104F400069FE0120ADF8000004208DF803006946D9
:104F5000DF4800F055FB0220ADF8000004208DF87A
:104F600003006946DA4800F04BFB2020ADF8000052
:104F700010208DF8030003208DF802006946D44804
:104F800000F03EFB03F00CFD0420ADF80000002013
:104F90008DF803006946CF4800F032FB1020ADF8D1
:104FA000000000208DF803006946CA4800F028FB85
:104FB0000220ADF8000000208DF803006946C548C6
:104FC00000F01EFB0120ADF8000000208DF803006A
:104FD0006946C04800F014FB0420ADF80000002032
:104FE0008DF803006946B74800F00AFB0220ADF8CF
:104FF000000000208DF803006946B24800F000FB75
:105000004FF48050ADF8000010208DF8030003200D
:105010008DF802006946AB4800F0F2FA0021012049
:1050200000F0EEFE4FF48050ADF8000010208DF837
:10503000030003208DF802006946A64800F0E0FA5C
:105040000021022000F0DCFE0120ADF80000042069
:105050008DF8030069469B4800F0D2FA4FF40060D7
:10506000ADF8000004208DF803006946994800F06F
:10507000C7FA4FF48070ADF8000010208DF80300DF
:1050800003208DF802006946924800F0B9FA4FF407
:105090008071904800F093FB8020ADF80000102054
:1050A0008DF8030003208DF802006946894800F05E
:1050B000A7FA8021874800F082FB4FF40070ADF81A
:1050C000000010208DF8030003208DF802006946CF
:1050D000804800F095FA4FF400717E4800F06FFBB5
:1050E0004FF48070ADF8000010208DF8030003200D
:1050F0008DF802006946734800F082FA4FF480711F
:10510000704800F05AFB0121734800F005FB4FF492
:105110008050ADF8000010208DF8030003208DF8BA
:1051200002006946694800F06BFA4FF48050674905
:10513000143108604020ADF8000000208DF8030015
:105140006946604800F05CFA4FF40060ADF800007A
:1051500018208DF8030003208DF8020069465B4893
:1051600000F04EFA4FF48040ADF8000004208DF8B6
:1051700003006946554800F043FA4FF40050ADF87B
:10518000000010208DF8030003208DF8020069460E
:105190004E4800F035FA4FF400504C491431086085
:1051A0008000ADF8000004208DF8030069464748F0
:1051B00000F026FA4FF40060ADF8000010208DF8E2
:1051C000030003208DF802006946414800F018FAF8
:1051D0004FF400603E49143108602020ADF8000013
:1051E00000208DF803006946364800F009FA4FF4B4
:1051F0008060ADF8000018208DF8030003208DF8C2
:1052000002006946314800F0FBF94FF40070ADF838
:10521000000004208DF8030069462D4800F0F0F9E5
:105220004FF48060ADF8000010208DF803000320DB
:105230008DF802006946264800F0E2F94FF48060DC
:105240002349143108608010ADF8000004208DF867
:10525000030069461E4800F0D3F90820ADF80000AD
:1052600000208DF8030069461A4800F0C9F9802033
:10527000ADF8000000208DF803006946114800F0E9
:10528000BFF94020ADF8000010208DF80300032086
:105290008DF8020069460D4800F0B2F940200B4934
:1052A000143108602020ADF8000010208DF80300B4
:1052B00003208DF802006946044800F0A1F90DE0D2
:1052C000000230000008014000140140000C0140C1
:1052D00000180140001001400003180020209E49E2
:1052E0000860ADF8000000208DF8030069469B4877
:1052F00000F086F91020ADF800008DF803000320BF
:105300008DF8020069469448143800F079F91020AD
:10531000914908600820ADF8000010208DF80300C6
:1053200003208DF8020069468B48143800F068F9B4
:105330000820894908601020ADF8000000208DF891
:1053400003006946864800F05BF94FF40050ADF861
:10535000000010208DF8030003208DF8020069463C
:10536000804800F04DF94FF400507E491431086038
:105370000120ADF8000000208DF803006946764852
:10538000143800F03DF90220ADF8000000208DF83F
:10539000030069467048143800F032F91020ADF867
:1053A00000008DF8030003208DF8020069466E4866
:1053B00000F026F910206C4914310860C001ADF8E6
:1053C000000010208DF8030003208DF802006946CC
:1053D000654800F015F94FF40061634800F0EDF9FD
:1053E0004FF48060ADF8000010208DF8030003201A
:1053F0008DF8020069465C4800F002F94FF48061C4
:10540000594800F0DAF94FF40070ADF800001020B0
:105410008DF8030003208DF802006946524800F021
:10542000EFF84FF40071504800F0C7F94FF4807066
:10543000ADF8000010208DF8030003208DF8020065
:105440006946494800F0DCF84FF48071464800F0A6
:10545000B4F90121080300F05FF94FF40040ADF802
:10546000000028208DF8030069463F4800F0C8F886
:105470004FF48040ADF8000028208DF80300694605
:10548000394800F0BDF84FF40050ADF80000282076
:105490008DF803006946344800F0B2F84FF48050AC
:1054A000ADF8000028208DF8030069462E4800F072
:1054B000A7F80120ADF8000010208DF803000320AC
:1054C0008DF802006946284800F09AF80121264824
:1054D00000F073F90220ADF8000010208DF80300F1
:1054E00003208DF8020069461F4800F089F8022168
:1054F0001D4800F062F92020ADF8000018208DF85A
:10550000030003208DF802006946174800F078F880
:105510004020ADF8000048208DF80300694612488D
:1055200000F06EF84FF40070ADF8000018208DF810
:10553000030003208DF802006946094800F060F876
:105540004FF48060ADF8000048208DF803006946F4
:10555000034800F055F808BD140C0140001001404C
:1055600000080140001801400014014008B5102057
:10557000ADF8000048208DF803006946014800F0AE
:105580003FF808BD0018014008B50820ADF800003C
:1055900048208DF803006946014800F031F808BD45
:1055A0000018014008B50420ADF8000048208DF82F
:1055B00003006946014800F023F808BD00180140C7
:1055C00030B500228B071C0F0F2303FA04F20B4B9C
:1055D0008C1053F824309343084C8D1044F8253038
:1055E00023468C1053F824308C07240F00FA04F45F
:1055F0002343024C8D1044F8253030BD0800014093
:105600002DE9F04102460025002600200023002459
:10561000002791F803C00CF00F0591F803C00CF0BF
:10562000100CBCF1000F03D091F802C04CEA050544
:1056300091F800C0BCF1000F31D0146800202BE0BD
:105640004FF0010C0CFA00F3B1F800C00CEA0306AD
:105650009E4220D183004FF00F0C0CFA03F7BC439D
:1056600005FA03FC4CEA040491F803C0BCF1280FCE
:1056700006D14FF0010C0CFA00FCC2F814C00AE08D
:1056800091F803C0BCF1480F05D14FF0010C0CFAA2
:1056900000FCC2F810C0401C0828D1D31460B1F837
:1056A00000C0BCF1FF0F34DD546800202EE000F193
:1056B000080C4FF0010808FA0CF3B1F800C00CEA2E
:1056C00003069E4221D183004FF00F0C0CFA03F722
:1056D000BC4305FA03FC4CEA040491F803C0BCF196
:1056E000280F05D100F1080C08FA0CF8C2F8148054
:1056F00091F803C0BCF1480F07D100F1080C4FF03E
:10570000010808FA0CF8C2F81080401C0828CED313
:105710005460BDE8F0810000F0B50A460023002483
:105720000021002500F00046B6F1004F02D11D4EC9
:10573000F16901E01B4E7168C0F3034583B200F4C8
:105740004016B6F5401F08D121F07061154E7668FD
:1057500026F07066134F7E6012E000F48016B6F5F6
:10576000801F06D1032606FA05F4A14341F07061BB
:1057700006E0460D360103FA06F6B14341F07061CA
:1057800022B1460D360103FA06F6314300F0004619
:10579000B6F1004F02D1034EF16101E0014E71609C
:1057A000F0BD0000000001400246002093680B405D
:1057B0000BB1012000E0002070474161704701619A
:1057C0007047000002460E2A40D2DFE802F0070BC5
:1057D0000F1317231F272B33372F3B1B1F4800881E
:1057E000086037E01D484088086033E01B48808827
:1057F00008602FE01948C08808602BE0174800892E
:10580000086027E015484089086023E01348808A33
:1058100008601FE01148C08A08601BE00F48008B39
:10582000086017E00D48408B086013E00B48008AC1
:1058300008600FE00948808908600BE00748C089CC
:10584000086007E00548408A086003E0002008601F
:105850000120704700BF0020FBE70000D8060020B1
:1058600001484078704700001800002010B502463B
:105870000021002013781B06547843EA04439478EF
:1058800043EA0423D47843EA040101F010030BB186
:10589000431CD8B201F020030BB1431CD8B201F075
:1058A00040030BB1031DD8B201F480730BB1431C4C
:1058B000D8B201F400730BB1431CD8B201F48033A9
:1058C0000BB1431CD8B201F400230BB1831CD8B236
:1058D00001F480130BB1431CD8B201F400130BB1D7
:1058E000431CD8B201F480030BB1431CD8B201F4BD
:1058F00000030BB1431CD8B210BD00000148007872
:1059000070470000B4000020014840787047000054
:10591000A80000200148007870470000A80000207F
:105920003EB50446042C0CDB07A052210D4B0EA201
:10593000CDE90104009113A1012008F043F9FF20F3
:105940003EBD1248005DFBE76E6F7420666F756E9A
:10595000642047726F756E64436865636B202564CD
:10596000000000000E5001082E2E5C4150505C7368
:1059700072635C67726F756E645F636865636B2EDC
:10598000630000004E4F5F54414700007A00002042
:1059900010B501460A4802780A4803780020084CEE
:1059A0002070084C207009B9104610BD012904D19F
:1059B0000120044C20731846F7E7FF20F5E70000AC
:1059C0004409002054090020014800787047000075
:1059D000740000200148007870470000A4000020F7
:1059E000014890F93D007047640900200148808A11
:1059F00000B27047640900200148408F00B2704730
:105A000064090020034890F93D000249098E48438B
:105A100000B2704764090020014890F97D0070478A
:105A2000640900200248B0F8540000B2704700003A
:105A3000640900200248B0F87A0000B27047000004
:105A400064090020034890F97D10B0F870004143CC
:105A500008B27047640900201CB5044614B90A480E
:105A600000781CBD012C02D107484078F9E707A057
:105A700065210C4B0CA2CDE9001011A1012008F00A
:105A8000A1F8FF20EDE70000B80000206E65627508
:105A9000696C7A6572206973206E6F74206578690D
:105AA00073740000105101082E2E5C4150505C733D
:105AB00072635C6E656275696C7A65722E63000054
:105AC0004E4F5F5441470000014800787047000086
:105AD000B60000203EB50446032C0CDB07A00E21C7
:105AE0000E4B0FA2CDE90104009113A1012008F093
:105AF00069F8FF203EBD1248005DFBE76E6F742021
:105B0000666F756E6420526563686167496E667280
:105B10006153746174655B25645D0000395C010844
:105B20002E2E5C4150505C7372635C7265636861D9
:105B30007267652E630000004E4F5F5441470000BE
:105B40007C02002001480078704700001800002007
:105B500010B501210148FFF727FE10BD00180140D4
:105B600010B502210148FFF71FFE10BD00180140CB
:105B70000148D0F88400704764090020014800689B
:105B800070470000100000203EB504460025042C9C
:105B90000DDB0DA09521114B11A2CDE9010400915F
:105BA00015A1012008F00EF84FF6FF703EBD154814
:105BB00030F81400B0F57A7F02DD4FF47A70F5E723
:105BC000104830F81400F1E76E6F7420666F756E40
:105BD0006420756C735B25645D000000A3500108B0
:105BE0002E2E5C4150505C7372635C756C747261F4
:105BF000736F756E642E6300756C747261736F756C
:105C00006E640000240A002010B50C2202490348EB
:105C1000FDF724FB10BD0000E8F7FF1F340A002049
:105C200010B504462CB94FF400410548FFF7BCFD00
:105C300010BD4FF480710348FFF7B6FDF8E7000090
:105C4000000C014000180140014611B902480078DB
:105C5000704701484078FBE77500002001464FF689
:105C6000FF7070471CB5044606A02021114B12A2FC
:105C7000CDE9001015A1042007F0A4FF4FF6FF7036
:105C80001CBD00006572726F722C207468652066FE
:105C9000756E6374696F6E2073686F756C64206EC7
:105CA0006F742062652063616C6C65642021212122
:105CB00000000000475101082E2E5C4150505C73DB
:105CC00072635C7765616B2E630000007765616BC2
:105CD00000000000014800787047000024090020FF
:105CE000002004E00021034A1154411CC8B20428DA
:105CF000F8DB70477A00002010B586B002A90620B4
:105D0000FFF760FD48B12AA01621324B32A2CDE93F
:105D1000001038A1012007F055FF03A90520FFF767
:105D200051FD48B122A018212A4B2BA2CDE9001029
:105D300030A1012007F046FF04A90720FFF742FD2C
:105D400048B11BA01A21234B23A2CDE9001029A1A1
:105D5000012007F037FF05A90820FFF733FD48B100
:105D600013A01C211B4B1CA2CDE9001021A1012076
:105D700007F028FF002417E002A850F82400B0F52F
:105D8000007F03DB002002A941F8240002A850F89C
:105D90002400401002A941F8240002A810F82400B1
:105DA00016490855601CC4B2042CE5DB06B010BDD2
:105DB000676574206261747465727920766F6C74A3
:105DC000616765206164632076616C75652066613A
:105DD000696C2E00FB4F01082E2E5C4150505C7305
:105DE00072635C67726F756E645F636865636B2E68
:105DF000630000004E4F5F54414700007A000020CE
:105E000070B505460C46012D0AD124B901030B4893
:105E1000FFF7D3FC04E04FF480510848FFF7CFFCB4
:105E2000022D0AD124B9E9020548FFF7C6FC04E0B7
:105E30004FF480510248FFF7C2FC70BD00080140DA
:105E40000010014010B54FF4E1300E49C1F8B8011F
:105E500001208870002008704870A1F8BC01A1F8EA
:105E6000BE01A1F8C00148608020C1F8B401C1F8AA
:105E7000B0010020A1F8520301F1080001F0ACFFCD
:105E800010BD00008802002010B502F0C1FEC8203D
:105E900007F068FB02F0BDFE00200149887010BDCC
:105EA0008802002030B503460C460025002104E09E
:105EB000585C2844C5B2481CC1B2A142F8DB9542E7
:105EC00001D0012030BD0020FCE700002DE9F043A7
:105ED00085B04FF00009854890F8AC0100EB8001D7
:105EE0008248083000EB8100807801067F4890F8F6
:105EF000AC0100EB80027D48083000EB8200C078E6
:105F000041EA0041794890F8AC0100EB8002774803
:105F1000083000EB8200007941EA0020734991F8D3
:105F2000AC1101EB81027149083101EB8201497921
:105F300040EA01056D4890F8AC0100EB80016B4828
:105F4000083000EB8104A41D05F0100018B1207882
:105F500003F0F8F8641C05F0200018B1207803F075
:105F6000EBF8641C05F04000002845D060782178EB
:105F700040EA012006B2A41C6078217840EA0120A2
:105F800007B2A41C30460DF03FFE4FFA80F84046A1
:105F900003F0F0F838460DF037FE4FFA80F840462F
:105FA00003F080F9B6F1000801DB414601E0C8F1D9
:105FB000000188B203F032F9B7F1000801DB414675
:105FC00001E0C8F1000188B203F0C0F94848006858
:105FD00047490968491C464A116046A102AAC1C244
:105FE000019140F219104E4B4EA253A10090012096
:105FF00007F0E8FD241D00BF05F4807018B120787B
:1060000003F0A6F8641C05F4007018B1207802F0C3
:1060100091FE641C05F4803000281DD0484801F032
:106020008FFAA8B947A00BF01BF94FF4FA7007F0EC
:1060300099FA00BF5148006800F4E06050490843F5
:10604000001D4E490860BFF3408F00BF00BFFEE750
:106050004CA00BF005F9641C05F4002098B12178E0
:10606000002003F0B7F96178012003F0B3F94BA0E9
:1060700040F243112A4B2BA2CDE900102EA104209F
:1060800007F0A0FDA41C05F4801018B1207803F0DF
:10609000E7F9641C05F4001018B1207803F040F80B
:1060A000641C05F4800018B1207803F059F8641CD2
:1060B00005F4000018B1207803F03AFA641C0B488C
:1060C000083002F027FC70B13AA040F26711144B7F
:1060D00014A2CDE9001018A1012007F073FD0120E2
:1060E00005B0BDE8F0834846FAE7000088020020CA
:1060F0000C000020636F756E743A2564202D2D3ED0
:1061000020737065656420736574207375636365BF
:106110007373204C3D2564202C20523D25640000E3
:10612000CA4D01082E2E5C4150505C7372635C684E
:106130006F73742E63000000686F737400000000BA
:1061400078563412577269746520424F4F545F4D30
:106150004F4445206F6B2C73797374656D207265A5
:10616000626F6F742C676F746F20626F6F746C6FE7
:10617000616465722E2E2E0D0A0000000CED00E009
:106180000000FA05577269746520424F4F545F4D05
:106190004F4445206661696C0D0A00006E656275AA
:1061A000696C7A657220686173206265207365741A
:1061B00000000000717565756520697320656D705C
:1061C00074792021212100002DE9FC4100260025C1
:1061D000FAA040F21B41FA4BFAA2CDE90010FEA151
:1061E000042007F0EFFCFE48B0F8BE3100F5E17284
:1061F0002021FCA007F0F2FBF948B0F85203002878
:1062000076D10024E9E0F648B0F8BE01001B07286B
:1062100019DAF34BB3F8BE311A1BF54B1919F04BD1
:10622000B3F8527303F55573F818FDF717F8EC48F7
:10623000B0F85203EA49B1F8BE11091B0844E84915
:10624000A1F85203CFE0EA48005DBB2808D0E84837
:10625000005DCC2804D0E648005DDD2800D0BAE01F
:10626000E348611C405C00B1B5E0E148005DBB283B
:106270003FD1DF49A21C8818FFF7F8FA0546D84835
:10628000B0F8BE01011BE81D814219DAD44BB3F806
:10629000BE311A1BD64B1919D14BB3F8527303F503
:1062A0005573F818FCF7DAFFCD48B0F85203CC4923
:1062B000B1F8BE11091B0844C949A1F8520392E084
:1062C000A31D5F19CA4BDA5DAB1DD9B2C84B1819B3
:1062D000FFF7E8FD00B17EE0E81DC2B2C448011935
:1062E000A0F5DD7002F0F0FCA01D284484B271E03E
:1062F0007AE0BF48005DCC2834D1B948B0F8BE017F
:10630000001B0B2819DAB64BB3F8BE311A1BB84B79
:106310001919B34BB3F8527303F55573F818FCF71A
:106320009DFFAF48B0F85203AD49B1F8BE11091B4B
:106330000844AB49A1F8520355E0AD4904F10A0302
:10634000CA5C08190A21FFF7ADFD00B143E0A84877
:1063500001190B22A0F5DD7002F0B6FC04F10A0071
:1063600084B237E0A248005DDD2833D19C48B0F804
:10637000BE01001B0B2819DA994BB3F8BE311A1B6A
:106380009B4B1919964BB3F8527303F55573F818D4
:10639000FCF764FF9248B0F852039149B1F8BE117E
:1063A000091B08448E49A1F852031CE0904904F1EE
:1063B0000A03CA5C08190A21FFF774FD00B10AE05C
:1063C0008B4801190B22A0F5DD7002F07DFC04F171
:1063D0000A0084B200BF601C84B28148B0F8BE01DC
:1063E000A0423FF710AFE8E07D49B1F8BE21B1F817
:1063F000523301F5557158187D49FCF72FFF784845
:10640000B0F852037649B1F8BE1108447449A1F8B6
:1064100052030024CAE07248B0F85203001B072858
:106420000FDA6F48B0F85203021B72480119FCF7EB
:1064300015FF6B48B0F85203001B6949A1F85203DD
:10644000BAE06C48005DBB2808D06A48005DCC28E3
:1064500004D06848005DDD2800D0A5E06548611CD7
:10646000405C00B1A0E06348005DBB2834D16149C5
:10647000A21C8818FFF7FAF905465948B0F85203EC
:10648000011BE81D81420FDA5548B0F85203021B88
:1064900058480119FCF7E2FE5148B0F85203001BBE
:1064A0004F49A1F8520387E0A31D5F19514BDA5DF4
:1064B000AB1DD9B24F4B1819FFF7F4FC00B173E0D4
:1064C000E81DC2B24B480119A0F5537002F0FCFB65
:1064D000A01D284484B25CE04648005DCC282AD147
:1064E0003F48B0F85203001B0B280FDA3C48B0F8C5
:1064F0005203021B3F480119FCF7B0FE3848B0F8C0
:106500005203001B3649A1F8520355E0394904F102
:106510000A03CA5C08190A21FFF7C4FC00B143E072
:10652000344801190B22A0F5537002F0CDFB04F1A1
:106530000A0084B22DE02F48005DDD2829D12848CB
:10654000B0F85203001B0B280FDA2548B0F85203AD
:10655000021B28480119FCF781FE2148B0F85203BC
:10656000001B1F49A1F8520326E0224904F10A0347
:10657000CA5C08190A21FFF795FC00B114E01D4818
:1065800001190B22A0F5537002F09EFB04F10A00E2
:1065900084B21348B0F85203401EA04203D1002039
:1065A0000F49A1F8520300BF601C84B20C48B0F838
:1065B0005203A0423FF72FAF00BF1DE000000000D4
:1065C000204E01082E2E5C4150505C7372635C6853
:1065D0006F73742E63000000686F73740000000016
:1065E00088020020686F73745F7265636500000045
:1065F0004A040020DC0500203046BDE8FC81000094
:106600002DE9FF5F0024A046A14600200390BE486C
:10661000D0F8B001BC49D1F8B41100EA0106BB4D75
:10662000AA20287000206870300EA870300CE87026
:10663000300A28716E71A41D06F0040068B10027AD
:1066400006E03846FFF746FAE1196854781CC7B2ED
:10665000032FF6DBE01C84B200BF06F0100020B16F
:10666000FFF758F92855601C84B206F0200020B1CD
:10667000FFF74AF92855601C84B206F04000002854
:106680003BD0FFF7BFF98246FFF7DCF90290CAF36F
:1066900007202855601C05F800A00298C0F30721C8
:1066A000A01C29540298C1B2E01C2954FFF766FAD5
:1066B0008346FFF75DFAABEB0000642100FB01F7B6
:1066C000002F0ADA92A040F252319B4B9BA2CDE9F7
:1066D00000109FA1042007F075FA390E201D2954DF
:1066E000C7F30741601D2954C7F30721A01D295492
:1066F000E01D2F54401C84B200BF06F0800078B12A
:106700000020FFF745F9039003982855601C84B2D8
:106710000120FFF73DF9039003982855601C84B2CF
:1067200006F4807020B1FFF74FF92855601C84B241
:1067300006F4007020B1FFF7CDFA2855601C84B232
:1067400006F4806020B1FFF78BF82855601C84B2F6
:1067500006F4006068B1002706E03846FFF7E0F86D
:10676000E1196854781CC7B2042FF6DB201D84B2EF
:1067700000BF06F4005020B1FFF7E4F92855601C73
:1067800084B206F4004068B1002005E07249095C5B
:106790002218A954411CC8B20C28F7DB04F10C01E3
:1067A0008CB200BF06F4003048B10020285501210A
:1067B000601C29540021A01C2954E01C84B206F45A
:1067C000802080B30020FFF7DFF9000A2855002061
:1067D000FFF7DAF9C1B2601C29540120FFF7D4F9A0
:1067E000010AA01C29540120FFF7CEF9C1B2E01C18
:1067F00029540220FFF7C8F9010A201D295402205C
:10680000FFF7C2F9C1B2601D29540320FFF7BCF99C
:10681000010AA01D29540320FFF7B6F9C1B2E01DFB
:106820002954401C84B206F4002068B1002706E019
:106830003846FFF711F9E1196854781CC7B2022FE6
:10684000F6DBA01C84B200BF06F4801020B1FFF775
:106850003BF92855601C84B206F4001020B1FFF704
:106860004DF82855601C84B206F4800020B1FFF773
:10687000B1F82855601C84B206F0004050B3374888
:106880000068000E285535480068C0F30741601CB9
:10689000295432480088C0F30721A01C29542F48EE
:1068A0000178E01C29542D484068000E211D6854D1
:1068B0002A484068C0F30741601D29542748808852
:1068C000C0F30721A01D295424480179E01D295453
:1068D000401C84B24FF0000808E015F80800484456
:1068E00000F0FF0908F101001FFA80F8A045F4DB71
:1068F00005F80490601C84B20348A0F8C041002051
:1069000004B0BDE8F09F00008802002012050020BE
:106910007370656564207374616D70206572726F49
:10692000722C20766C617565206C657373207468B9
:10693000616E207A65726F000D4E01082E2E5C414B
:1069400050505C7372635C686F73742E6300000058
:10695000686F737400000000340A002000000020FB
:1069600010B5E6B0002427E01C4890F8AC0100EB1D
:1069700080011A48083010F82100BB2804D0CC2828
:1069800006D0DD280BD107E0FFF7A0FA044612E09D
:1069900000F0FEFA04460EE000F042F80BE001249D
:1069A0000FA0DE21164B17A2CDE900101AA101207D
:1069B00007F008F900BF00BF4FF4CB720749183148
:1069C0006846FCF74BFC054808300FC802F022FA75
:1069D0000028C9D0204666B010BD00008802002003
:1069E00038303039206465636F6465207461736B7F
:1069F000207175657565206572726F720000000008
:106A0000B34D01082E2E5C4150505C7372635C687C
:106A10006F73742E63000000686F737400000000D1
:106A20007CB50026FE4890F8AC0100EB8001FC48E4
:106A3000083000EB810080780106F94890F8AC013D
:106A400000EB8002F648083000EB8200C07841EA93
:106A50000041F34890F8AC0100EB8002F0480830A8
:106A600000EB8200007941EA0020ED4991F8AC1179
:106A700001EB8102EA49083101EB8201497940EAE0
:106A80000104E74890F8AC0100EB8001E4480830CD
:106A900000EB810080790106E14890F8AC0100EB41
:106AA0008002DF48083000EB8200C07941EA0041F3
:106AB000DB4890F8AC0100EB8002D948083000EBCD
:106AC0008200007A41EA0020D54991F8AC1101EB2F
:106AD0008102D349083101EB8201497A40EA01057C
:106AE00004F0010098B105F0010040B1CC48D0F8A5
:106AF000B40140F00100CA49C1F8B40107E0C84838
:106B0000D0F8B40120F00100C549C1F8B40104F087
:106B1000040098B105F0040040B1C148D0F8B401B8
:106B200040F00400BE49C1F8B40107E0BC48D0F809
:106B3000B40120F00400BA49C1F8B40104F0100017
:106B400098B105F0100040B1B548D0F8B40140F05C
:106B50001000B349C1F8B40107E0B148D0F8B4015E
:106B600020F01000AE49C1F8B40104F0200098B143
:106B700005F0200040B1AA48D0F8B40140F0200050
:106B8000A749C1F8B40107E0A548D0F8B40120F046
:106B90002000A349C1F8B40104F04000002835D01A
:106BA00005F04000C8B19E48D0F8B40140F0400064
:106BB0009B49C1F8B401012002F0BAFB012002F0A8
:106BC0001FFB98A040F27D219C4B9DA2CDE90010B7
:106BD000A0A1042006F0F6FF18E09148D0F8B40117
:106BE00020F040008E49C1F8B401002002F0A0FB63
:106BF000002002F005FB99A04FF421718F4B90A269
:106C0000CDE9001093A1042006F0DCFF04F0800021
:106C100098B105F0800040B18148D0F8B40140F04F
:106C200080007F49C1F8B40107E07D48D0F8B40185
:106C300020F080007A49C1F8B40104F4807098B162
:106C400005F4807040B17648D0F8B40140F480700B
:106C50007349C1F8B40107E07148D0F8B40120F4D9
:106C600080706F49C1F8B40104F4007098B105F464
:106C7000007040B16A48D0F8B40140F4007068492F
:106C8000C1F8B40107E06648D0F8B40120F4007000
:106C90006349C1F8B40104F4806098B105F48060E0
:106CA00040B15F48D0F8B40140F480605C49C1F85D
:106CB000B40107E05A48D0F8B40120F48060584984
:106CC000C1F8B40104F4006098B105F4006040B16B
:106CD0005348D0F8B40140F400605149C1F8B40100
:106CE00007E04F48D0F8B40120F400604C49C1F8E7
:106CF000B40104F4005098B105F4005040B1484884
:106D0000D0F8B40140F400504549C1F8B40107E09F
:106D10004348D0F8B40120F400504149C1F8B4010F
:106D200004F4004098B105F4004040B13C48D0F86C
:106D3000B40140F400403A49C1F8B40107E03848D2
:106D4000D0F8B40120F400403549C1F8B40104F48E
:106D5000803098B105F4803040B13148D0F8B401AA
:106D600040F480302E49C1F8B40107E02C48D0F837
:106D7000B40120F480302A49C1F8B40104F4003091
:106D800098B105F4003040B12548D0F8B40140F482
:106D900000302349C1F8B40107E02148D0F8B4011C
:106DA00020F400301E49C1F8B40104F4802098B1E9
:106DB00005F4802040B11A48D0F8B40140F4802096
:106DC0001749C1F8B40107E01548D0F8B40120F420
:106DD00080201349C1F8B40104F4002098B105F4EF
:106DE000002040B10E48D0F8B40140F400200C4916
:106DF000C1F8B40107E00A48D0F8B40120F400203B
:106E00000749C1F8B40104F4801098B305F4801068
:106E100088B30348D0F8B40140F4801000492BE057
:106E2000880200206D6F746F72206F70656E207322
:106E3000756363657373202121210000F54D0108FE
:106E40002E2E5C4150505C7372635C686F73742EBD
:106E500063000000686F7374000000006D6F746F52
:106E60007220636C6F736520737563636573732041
:106E7000212121000BE002E0C1F8B40107E03D4808
:106E8000D0F8B40120F480103A49C1F8B40104F4F8
:106E9000001098B105F4001040B13648D0F8B401A4
:106EA00040F400103349C1F8B40107E03148D0F88C
:106EB000B40120F400102F49C1F8B40104F480009B
:106EC00098B105F4800040B12A48D0F8B40140F4EC
:106ED00080002849C1F8B40107E02648D0F8B40181
:106EE00020F480002349C1F8B40104F4000098B1F3
:106EF00005F4000040B11F48D0F8B40140F4000090
:106F00001C49C1F8B40107E01A48D0F8B40120F4D4
:106F100000001849C1F8B40104F0004098B105F030
:106F2000004040B11348D0F8B40140F0004011498E
:106F3000C1F8B40107E00F48D0F8B40120F00040D8
:106F40000C49C1F8B4010B48083001F0E3FC70B102
:106F500009A040F205310D4BAFF21C12CDE9001033
:106F6000AFF21011042006F02DFE01207CBD30464A
:106F7000FCE7000088020020707565756520697364
:106F800020656D707479202121210000F54D0108E4
:106F90007CB50026F94890F8AC0100EB8001F74879
:106FA000083000EB810080780106F44890F8AC01CD
:106FB00000EB8002F148083000EB8200C07841EA23
:106FC0000041EE4890F8AC0100EB8002EB4808303D
:106FD00000EB8200007941EA0020E84991F8AC1109
:106FE00001EB8102E549083101EB8201497940EA70
:106FF0000104E24890F8AC0100EB8001DF48083062
:1070000000EB810080790106DC4890F8AC0100EBD0
:107010008002DA48083000EB8200C07941EA004182
:10702000D64890F8AC0100EB8002D448083000EB61
:107030008200007A41EA0020D04991F8AC1101EBBE
:107040008102CE49083101EB8201497A40EA01050B
:1070500004F0010098B105F0010040B1C748D0F834
:10706000B00140F00100C549C1F8B00107E0C348D4
:10707000D0F8B00120F00100C049C1F8B00104F01F
:10708000040098B105F0040040B1BC48D0F8B0014C
:1070900040F00400B949C1F8B00107E0B748D0F8A2
:1070A000B00120F00400B549C1F8B00104F01000AF
:1070B00098B105F0100040B1B048D0F8B00140F0F0
:1070C0001000AE49C1F8B00107E0AC48D0F8B001FB
:1070D00020F01000A949C1F8B00104F0200098B1D7
:1070E00005F0200040B1A548D0F8B00140F02000E4
:1070F000A249C1F8B00107E0A048D0F8B00120F0E3
:1071000020009E49C1F8B00104F0400098B105F09C
:10711000400040B19948D0F8B00140F04000974994
:10712000C1F8B00107E09548D0F8B00120F0400068
:107130009249C1F8B00104F0800098B105F08000D8
:1071400040B18E48D0F8B00140F080008B49C1F8C2
:10715000B00107E08948D0F8B00120F080008749ED
:10716000C1F8B00104F4807098B105F4807040B1AA
:107170008248D0F8B00140F480708049C1F8B00175
:1071800007E07E48D0F8B00120F480707B49C1F858
:10719000B00104F4007098B105F4007040B1774874
:1071A000D0F8B00140F400707449C1F8B00107E0B4
:1071B0007248D0F8B00120F400707049C1F8B001F5
:1071C00004F4806098B105F4806040B16B48D0F859
